:40000000023217008F828E83E0540100000070F82278FFE4F6D8FD023275BB010689828A83E0225002E722BBFE02E32289828A83E49322BB010989828A83F8E028F02250DE
:400040000327F722BBFE05F8E328F3228A838982F8E4932822BB010689828A83F0225002F722BBFE01F322EF8DF0A4A8F0CF8CF0A428CE8DF0A42EFE22BC000BBE0029EFD7
:400080008DF084FFADF022E4CCF875F008EF2FFFEE33FEEC33FCEE9DEC984005FCEE9DFE0FD5F0E9E4CEFD22EDF8F5F0EE8420D21CFEADF075F008EF2FFFED33FD40079843
:4000C0005006D5F0F222C398FD0FD5F0EA22C5F0F8A3E028F0C5F0F8E582158270021583E038F022A3F8E0C5F025F0F0E582158270021583E0C838F0E822BB010A89828A00
:4001000083E0F5F0A3E022500687F009E71922BBFE07E3F5F009E3192289828A83E493F5F074019322BB010A89828A83F0E5F0A3F0225006F709A7F01922BBFE06F3E5F086
:4001400009F31922EF2BFFEE3AFEED39FDEC38FC22E88FF0A4CC8BF0A42CFCE98EF0A42CFC8AF0EDA42CFCEA8EF0A4CDA8F08BF0A42DCC3825F0FDE98FF0A42CCD35F0FC27
:40018000EB8EF0A4FEA9F0EB8FF0A4CFC5F02ECD39FEE43CFCEAA42DCE35F0FDE43CFC2275F008758200EF2FFFEE33FECD33CDCC33CCC58233C5829BED9AEC99E5829840F3
:4001C0000CF582EE9BFEED9AFDEC99FC0FD5F0D6E4CEFBE4CDFAE4CCF9A88222B800C1B90059BA002DEC8BF084CFCECDFCE5F0CBF97818EF2FFFEE33FEED33FDEC33FCEBAE
:4002000033FB10D703994004EB99FB0FD8E5E4F9FA227818EF2FFFEE33FEED33FDEC33FCC933C910D7059BE99A4007EC9BFCE99AF90FD8E0E4C9FAE4CCFB2275F010EF2F9E
:40024000FFEE33FEED33FDCC33CCC833C810D7079BEC9AE899400AED9BFDEC9AFCE899F80FD5F0DAE4CDFBE4CCFAE4C8F922EF4BFFEE4AFEED49FDEC48FC22EB9FF5F0EA43
:400280009E42F0E99D42F0E89C45F022E8600FECC313FCED13FDEE13FEEF13FFD8F122E8600FEFC333FFEE33FEED33FDEC33FCD8F122E0FCA3E0FDA3E0FEA3E0FF22E0F808
:4002C000A3E0F9A3E0FAA3E0FB22ECF0A3EDF0A3EEF0A3EFF022E0FBA3E0FAA3E0F922F8E0FBA3A3E0F925F0F0E582158270021583E0FA38F022F8E0FBA3A3E025F0F9F0D4
:40030000E582158270021583E038FAF022EBF0A3EAF0A3E9F022E493FB740193FA740293F922D083D082F8E4937012740193700DA3A393F8740193F5828883E4737402932D
:400340006860EFA3A3A380DFE51A2582F582E5193583F583B5190485821A2210AF0685821AF5192285821AF519D2AF22EC8EF0A4CCC5F0CCCDF8EFA4CEC5F02DFDE43CFCBA
:40038000E8A42EC8C5F03DFDE43CFCEFA4FFE5F028FEE43DFDE43CFC22EF4E6012EF60010EEDBB010B89828A83F0A3DFFCDEFA2289F05007F709DFFCA9F022BBFEFCF3096F
:4003C000DFFCA9F022E3F5F009E208B5F06BDFF58067E3F5F009E608B5F05EDFF5805A87F009E608B5F052DFF6804E87F009E208B5F046DFF6804288828C8387F009E0A361
:40040000B5F036DFF6803288828C8387F009E493A3B5F025DFF5802188828C83E3F5F009E0A3B5F014DFF5801088828C83E3F5F009E493A3B5F002DFF40204E0808780E90A
:40044000809080D48034801580648074809D80B7808D80A38047806A80320204EC88848C8589828A83E493F5F0A30586E493A30586B5F06CDFEFDEED806689828A83E4939B
:40048000F5F0A3E208B5F058DFF4805489828A83E0F5F0A3E608B5F047DFF5804389828A83E0F5F0A3E208B5F036DFF5803289828A83E493F5F0A3E608B5F024DFF4802029
:4004C0008002804388848C8589828A83E493F5F0A30586E0A30586B5F006DFF0DEEE80007FFFB5F0020F2240027F012288848C8589828A83E0F5F0A30586E0A30586B5F00F
:40050000DFDFF1DEEF80D988848C8589828A83E0F5F0A30586E493A30586B5F0C3DFF0DEEE80BD88F0EF60010E4E60BFED2402B4040050ACF582EB2402B4040050A2232357
:4005400045822390043C73E709F608DFFA8046E709F208DFFA803E88828C83E709F0A3DFFA8032E309F608DFFA806EE309F208DFFA806688828C83E309F0A3DFFA805A89EF
:40058000828A83E0A3F608DFFA804E89828A83E0A3F208DFFA804280D280FA80C680D4805580F28029801080A680EA809A80A880DA80E280CA802988848C8589828A83E4D4
:4005C00093A30586F0A30586DFF5DEF3800B89828A83E493A3F608DFF9ECFAA9F0EDFB2288848C8589828A83E0A30586F0A30586DFF6DEF480E389828A83E493A3F208DFE5
:40060000F980D688F0EF60010E4E60CD88F0ED2402B4040050C3F582EB2402B4040050B9232345822390059773BB010CE58229F582E5833AF583E0225006E92582F8E622DB
:40064000BBFE06E92582F8E222E58229F582E5833AF583E493229002AF12030D9003E0E4F0A3E4F09003E8740BF0A374B8F07B017A0279B29003EA12030D7B017A0279B2C6
:40068000C003C002C0017B017A0279A39007EA12030DD001D002D0037D111219F29003EA1202D6E92414F9EA3400FA1200FAFFAEF0EF541FFFEE8FF01201259003EA120243
:4006C000D6E92422F9EA3400FA74AB75F0CD1201259003EA1202D6E92424F9EA3400FAE475F0351201259003EA1202D6E92426F9EA3400FAE475F0001201259003EA12023F
:40070000D6E92428F9EA3400FAE475F0001201259003EA1202D6E9242AF9EA3400FA74BA75F0AB1201259003EA1202D6E9242CF9EA3400FA740175F0001201259003EA12A5
:4007400002D6E9242EF9EA3400FAE475F0011201259003EA1202D6E92430F9EA3400FAE475F0001201259003EA1202D6E92432F9EA3400FAE475F0001201259003EA1202D4
:40078000D6E92434F9EA3400FAE475F0001201257B017A0279E99003E512030D9002AF1202D69003E212030D9003E21202D612001AFFEF700302083D9003E21202D6120036
:4007C0001AFFEF645C60769003E21202D612001AFF9003E51202D6EF1200559003E21202D612001AFFEFB42E339003E0E0FEA3E0FF9003E0E0FCA3E0FDED2401FDEC3400BA
:40080000FC9003E51202D6C3E99DF9EA9CFAEF1200559003E0E4F0A3E4F0800A9003E0E475F0011200CE9003E3E475F0011200CE9003E6E475F0011200CE0207A89003E0F6
:40084000E0FEA3E0FF9003E0E0FCA3E0FDED2401FDEC3400FC9003E51202D6C3E99DF9EA9CFAEF1200559003E5E475F0011202DFE41200559003E5E475F0011202DFE412F9
:4008800000559003E5E475F0011202DF74011200559003E5E475F0011202DFE41200559003E5E475F0011202DF74011200559003E51202D6AE02AF017B017A0279B2AC022E
:4008C000AD01C3EF9DFFEE9CFE9003DEEEF0A3EFF09003DEE0FEA3E0FFEF24DEFFEE34FFFE9003EA1202D6E92426F9EA3400FAEE8FF01201259003DEE0FEA3E0FFEF24F29D
:40090000FFEE34FFFE9003EA1202D6E92410F9EA3400FAEE8FF01201259003EA1202D6E9240EF9EA3400FA9007E1E4F07D147C001216169003EA1202D6E92418F9EA340092
:40094000FAEE8FF01201259003EA1202D6E9241AF9EA3400FA9003DEE0FEA3E0FFEF24E6FDEE34FFFC9007E17401F01216169003EA1202D6E92428F9EA3400FAEE8FF0120E
:4009800001257B017A0279B29003DEE0FCA3E0FD122A6A9003E874FF75F0FF1200E4AFF0FEEF4E7003020B307B017A0279B27F117E001212C89002D4E0FEA3E0FFEF64353E
:4009C0004E70D07B017A0279B29003EA12030D9003EA1202D6E9242AF9EA3400FA1200FAFFAEF0EF64AB7003EE64BA6003020B289003EA1202D6E9242CF9EA3400FA120077
:400A0000FAFFAEF0EF4E60067E007F0180047E007F00EF64804E7003020B289003DEE0FEA3E0FF74B22FF974023EFA7B019003E512030D9003E51202D612001AFFEFB4C061
:400A40000C9003E6E475F0021200CE804C9003DEE0FEA3E0FF74B22FF974023EFA7B01C003C002C0019003E5E475F0011202F6C3D082D083D0E0E99582EA9583501B900387
:400A8000E51202D612001AFFEF70C29003E6E475F0011200CE800280B49003E51202D6E92401F9EA3400FA12001AFFEF6401704B9003E51202D6E92409F9EA3400FA12006C
:400AC0001AFFEFB404359003E51202D6E9240AF9EA3400FAC003C002C0017B017A027995A801AC02AD03D001D002D0037E007F04120603E47E007F002280359003E512024E
:400B0000D6E92409F9EA3400FA12001AFF7E00EF240AFFEE3400FE9003E6EE8FF01200CE020A33800B0209937E007F01220209937E007F012290078C12030D90078FECF080
:400B4000A3EDF0900797E4F090078C1202D6E92432F9EA3400FAE475F00012012590078C1202D6E92418F9EA3400FAE475F00012012590078C1202D6E92406F9EA3400FA20
:400B8000C003C002C00190078C1202D6A801AC02AD03D001D002D0037E007F061206037B017A02799DC003C002C00190078C1202D6E92406F9EA3400FAA801AC02AD03D0EB
:400BC00001D002D0037E007F0612060390078C1202D6E9241AF9EA3400FAC003C002C00190078C1202D6E9241EF9EA3400FAA801AC02AD03D001D002D0037E007F041206C7
:400C0000037B017A017961C003C002C00190078C1202D6E9241AF9EA3400FAA801AC02AD03D001D002D0037E007F0412060390078C1202D6E92424F9EA3400FA1200FAFF62
:400C4000AEF0900795EEF0A3EFF090078C1202D6E92422F9EA3400FA1200FAFFAEF090078C1202D6E92424F9EA3400FAEE8FF0120125900795E0FEA3E0FF90078C1202D6C7
:400C8000E92422F9EA3400FAEE8FF012012590078C1202D6E9242AF9EA3400FAC003C002C0017B017A077991A801AC02AD03D001D002D0037E007F0412060390078C1202DD
:400CC000D6E92426F9EA3400FAC003C002C00190078C1202D6E9242AF9EA3400FAA801AC02AD03D001D002D0037E007F041206037B017A077991C003C002C00190078C1224
:400D000002D6E92426F9EA3400FAA801AC02AD03D001D002D0037E007F0412060390078C1202D6E9242FF9EA3400FA12001AFFEFC313FFEF20E01690078C1202D6E9242F67
:400D4000F9EA3400FA12001AFFEF30E01790078C1202D6E9242AF9EA3400FA7D017C00122CE3802190078C1202D6E9242AF9EA3400FA90078FE0FEA3E0FFEF24CAFDEE3439
:400D8000FFFC122CE3200B03020E2CA20BE433FFEF5401FFEF25E0FF90078C1202D6E9242FF9EA3400FA12001AFEEE54FDFEEE4FFFEF12005590078C1202D6E92434F9EA30
:400DC0003400FA90079812030D900798E475F0011202DF7402120055900798E475F0011202DF7404120055900798E475F0011202DF7405120055900798E475F0011202DF28
:400E0000748012005590078C1202D6E9242EF9EA3400FA12001AFFEF540FFFEF4460FFEF120055900797E02404F0801E90078C1202D6E9242EF9EA3400FA12001AFFEF540F
:400E40000FFFEF4450FFEF12005590078C1202D6E9242FF9EA3400FA12001AFFEF4410FFEF12005590078C1202D6E9242FF9EA3400FA12001AFFEF54F7FFEF1200559007C4
:400E80008C1202D6E9242FF9EA3400FA12001AFFEF54FEFFEF12005590078C1202D6E9242FF9EA3400FA12001AFFEF54FBFFEF120055900797E0FFEF2436FF7E0090078F9D
:400EC000EEF0A3EFF090078FE0FEA3E0FFEF24F2FFEE34FFFE90078C1202D6E92410F9EA3400FAEE8FF012012590078C1202D6E9240EF9EA3400FA9007E1E4F07D147C0077
:400F000012161690078C1202D6E92418F9EA3400FAEE8FF012012590078C1202D6E9241AF9EA3400FA900797E0FFEF241CFFEFFD7C009007E17402F012161690078C120250
:400F4000D6E92432F9EA3400FAEE8FF012012590078C1202D690078FE0FCA3E0FD122A6A7E0022E5142448F582E43407F583E0051422900745300703900748E475F00112F2
:400F800002DF02001A2000E97F2ED2008018EF540F2490D43440D4FF30040BEF24BFB41A0050032461FFE515600215150518E5187002051730070E900745E475F001120290
:400FC000DFEF0200550240217403D2078003E4C207F51490074512030DE4F515F517F518E51560077F20120FA680F57516FFC201C200C202C203C205C206C208120F72FF1C
:40100000700D3007057F00120FB7AF18AE1722B4255FC2D5C204120F72FF24D0B40A00501A75F00A781530D50508B6FF0106C6A426F620D5047002D20380D924CFB41A0005
:40104000EF5004C2E5D2040211B8D20180C6D20080C0D20280BCD2D580BAD20580B47F20120FA62002077401B5150040F1120F63FF120FA6020FE0D208D2068095120F6339
:40108000FB120F63FA120F63F94A4B700679897A127BFF20022EE515602A7E008E8275830012062960060EEE651670F0C2D5EBC0E0EAC0E0E9C0E0EE1211FFD0E0F9D0E0B1
:4010C000FAD0E0FB12001AFF60AAEBC0E0EAC0E0E9C0E0120FA6D0E02401F9D0E03400FAD0E0FBE5160460DCD516D980877BFF7A1179FBD202809C791080027908C206C2D5
:40110000088008D2D5790A8004790AC2D5E516047002F516E4FAFDFEFF120F63FC7B08200113120F63FD7B1030000A120F63FE120F63FF7B20EC3382D592D55013C3E430CF
:4011400000069FFFE49EFEE42001039DFDE49CFCE4CBF8C201EC700CCFCECDCCE824F8F870F38017C3EF33FFEE33FEED33FDEC33FCEB33FB994002FB0FD8E9EB300105F81C
:40118000D0E0C448B201C0E00AEC4D4E4F78207B0070C2EAB5160040BCC0E0121201D0F0D0E0200104C4C0E0C4B201C0F0120F8FD0F0D5F0EB020FE0120322107D5310F736
:4011C00058104E4C104A4210FB4F11034411034910634311095510ED4610ED4510ED4712A95010522D10562E10792B105A2310772012922A101248000010713F3F3F00794F
:401200000AA2D5200314300509B910020404B9080104A2D52006025001042002689202B515005034C0E07F203003197F30A20272067205500F121258C202C206C205C208FA
:401240007F30800F300503E9C0E0120FA6300503D0E0F9D0E0B515CC3005177F30B9100C120FA67F583004077F788003B90803120FA63002057F2D020FA67F202008F87FFB
:401280002B2006F322920280CF286E756C6C2900D201120F633001F8C201781530D50108F60210122D50434958120F632403B405004001E49012A493120F97743A120F9700
:4012C000D2037515040210F790076DEEF0A3EFF090076F12030D90076F1202D67D2C7C011223A6900772EEF0FEA3EFF0FFEF4E700302161090076F1202D690077412030DAA
:401300009007741202D6E9240CF9EA3400FA1200FAFFAEF0EFB4063AEEB4083690076F1202D690077712030D9007771202D6E92414F9EA3400FA1200FAFFAEF0EF64014E8D
:4013400060030216109007771202D612209B220216109007741202D6E9240CF9EA3400FA1200FAFFAEF0EF64007003EE6408600302161090076F1202D690077712030D90B0
:4013800007771202D6E92417F9EA3400FA12001AFFEF6401703490076F1202D690077A12030D90077A1202D6E92422F9EA3400FA12001AFFEFB4081290076F1202D69007A0
:4013C00072E0FCA3E0FD121BCA229007771202D6E92417F9EA3400FA12001AFFEF640660030215E790076F1202D690077A12030D90077A1202D6E9242FF9EA3400FA120077
:401400001AFFEFC313FFEF20E0030214F790077A1202D6E92424F9EA3400FA1200FAFFAEF09002A7E0FCA3E0FDEF6D7002EE6C705390077A1202D6E9242FF9EA3400FA1210
:40144000001AFFEFC4540FFFEF30E038D20990077A1202D6C003C002C00190077A1202D6E92410F9EA3400FA1200FAFFAEF0EF240EFDEE3400FCC20BD001D002D003120B7D
:401480003522807390077A1202D6E92424F9EA3400FA1200FAFFAEF0900293E0FCA3E0FDEF6D7002EE6C704F90077A1202D6E9242FF9EA3400FA12001AFFEFC4540FFFEF1D
:4014C00020E03490077A1202D6C003C002C00190077A1202D6E92410F9EA3400FA1200FAFFAEF0EF240EFDEE3400FCD20BD001D002D003120B352290077A1202D6E9242F6B
:40150000F9EA3400FA12001AFFEF131313541FFFEF30E06D90077A1202D6E9242FF9EA3400FA12001AFFEFC4540FFFEF30E05290077A1202D6E92424F9EA3400FA1200FA47
:40154000FFAEF0900293E0FCA3E0FDEFB50508EEB50404D20A802A90077A1202D6E92424F9EA3400FA1200FAFFAEF09002A7E0FCA3E0FDEFB5050AEEB5040690016074012A
:40158000F090077A1202D6E9242FF9EA3400FA12001AFFEF20E01C90077A1202D6E9242FF9EA3400FA12001AFFEF1313543FFFEF30E03490077A1202D6C003C002C001909F
:4015C000077A1202D6E92410F9EA3400FA1200FAFFAEF0EF240EFDEE3400FCC20BD001D002D003120B35229007771202D6E92417F9EA3400FA12001AFF7E0090076DE0FC00
:40160000A3E0FDEFB50509EEB504057E007F0122E47E007F00229007DC12030D9007DFECF0A3EDF07F007E007D007C009007E21202CA9007E1E0FFEFB4013E9007E212022F
:40164000B2EF2411FFEE3400FEED3400FDEC3400FC9007E21202CA9007E21202BE9007DFE0FEA3E0FFEF24F8FFEE34FFFEE4FCFD1201449007E21202CA9007E1E0FFEFB415
:40168000023E9007E21202B2EF2406FFEE3400FEED3400FDEC3400FC9007E21202CA9007E21202BE9007DFE0FEA3E0FFEF24F8FFEE34FFFEE4FCFD1201449007E21202CA0D
:4016C0009007DFE0FEA3E0FFD3EF9401EE9400500302175F9007E21202B2C004C005C006C0079007DC1202D6E92401F9EA3400FA12001AFFE4FCFDFEC004C005C006C00783
:401700009007DC1202D612001AFFE4FCFDFE780812029FA804A905AA06AB07D007D006D005D00412026EEF54FFFBEE54FFFAED5400F9EC5400F8D007D006D005D00412012C
:40174000449007E21202CA9007DDE475F0021200CE9007DF74FF75F0FE1200CE0216C09007DFE0FEA3E0FFEF4E603E9007E21202B2C004C005C006C0079007DC1202D612B6
:40178000001AFFEF54FFFFE4FCFDFE780812029FA804A905AA06AB07D007D006D005D0041201449007E21202CA9007E21202B2781012028CEC4D4E4F60449007E21202B2E1
:4017C000EF54FFFFEE54FFFEED5400FDEC5400FCC004C005C006C0079007E21202B2781012028CA804A905AA06AB07D007D006D005D0041201449007E21202CA80AB9007F0
:40180000E21202B2EF64FFFFEE64FFFEED6400FDEC6400FC229006E912030D7BFF7A33799BC003C002C0019006E91202D6E92436F9EA3400FA90074812030D90074BE4F00E
:40184000A37404F0D001D002D003123431EF602D9006E91202D6C003C002C0017BFF7A3379A090082A12030DD001D002D0037D007C001237AF9006ECEEF0A3EFF07B017AE2
:401880000679EE123DD97B017A0679F0C003C002C0017BFF7A3379CD90074812030D9006EEE0FEA3E0FF90074BEEF0A3EFF0D001D002D003120FC87BFF7A3379F3C003C0DF
:4018C00002C0019006E91202D6E9243AF9EA3400FA90074812030D90074BE4F0A37402F0D001D002D003123431EF60030219E09006E91202D6C003C002C0017BFF7A33791B
:40190000A090082A12030DD001D002D0037D007C001237AF9006ECEEF0A3EFF09006E91202D6C003C002C0019006ECE0FCA3E0FD7BFF7A3379F690082A12030DD001D00230
:40194000D0031237AF9006ECEEF0A3EFF09006E91202D6C003C002C0019006ECE0FCA3E0FD7BFF7A34791490082A12030DD001D002D0031237AF9006ECEEF0A3EFF09006AE
:40198000E91202D6C003C002C0019006ECE0FCA3E0FD7BFF7A34792C90082A12030DD001D002D0031237AF9006ECEEF0A3EFF09006E91202D6C003C002C0019006ECE0FC22
:4019C000A3E0FD7B017A0679F090082A12030DD001D002D0031237AF9006ECEEF0A3EFF09006E91202D69006ECE0FCA3E0FD122521229007E612030D9007E9EDF09007E694
:401A00001202D69007ED12030D9007ED1202D6E9240CF9EA3400FA740875F0001201257B017A0279A9C003C002C0019007ED1202D6A801AC02AD03D001D002D0037E007F1D
:401A4000061206037B017A02799DC003C002C0019007ED1202D6E92406F9EA3400FAA801AC02AD03D001D002D0037E007F061206037B017A017961C003C002C0019007ED29
:401A80001202D6E9241AF9EA3400FAA801AC02AD03D001D002D0037E007F041206039007EA1202D6C003C002C0019007ED1202D6E9241EF9EA3400FAA801AC02AD03D00138
:401AC000D002D0037E007F041206039007ED1202D6E9240EF9EA3400FA12001AFFEF540FFFEF4440FFEF1200559007ED1202D6E9240EF9EA3400FA12001AFFEF54F0FFEF61
:401B00004405FFEF1200559007ED1202D6E9240FF9EA3400FAE41200559007ED1202D6E92412F9EA3400FAE475F0021201259007ED1202D6E92414F9EA3400FA1200FAFF55
:401B4000AEF0EF541FFFEF4440FFEE8FF01201259007ED1202D6E92414F9EA3400FA1200FAFFAEF0EF54E0FFEE8FF01201259007ED1202D6E92414F9EA3400FA1200FAFF94
:401B8000AEF07E00EE8FF01201259007ED1202D6E92416F9EA3400FA74801200559007E9E0FF9007ED1202D6E92417F9EA3400FAEF1200559007ED1202D6E92418F9EA3465
:401BC00000FAE475F0001201252290088E12030D900891ECF0A3EDF090088E1202D6E92422F9EA3400FA12001AFFEF64086003021D6690088E1202D6E92422F9EA3400FA6D
:401C0000E412005590088E1202D6E92424F9EA3400FAE475F00012012590088E1202D6E92418F9EA3400FAE475F00012012590088E1202D6E92406F9EA3400FAC003C00206
:401C4000C00190088E1202D6A801AC02AD03D001D002D0037E007F061206037B017A02799DC003C002C00190088E1202D6E92406F9EA3400FAA801AC02AD03D001D002D0F6
:401C8000037E007F0612060390088E1202D6E9241AF9EA3400FAC003C002C00190088E1202D6E9241EF9EA3400FAA801AC02AD03D001D002D0037E007F041206037B017A9A
:401CC000017961C003C002C00190088E1202D6E9241AF9EA3400FAA801AC02AD03D001D002D0037E007F0412060390088E1202D6E92422F9EA3400FA900891E0FEA3E0FF09
:401D0000EF24DEFDEE34FFFC9007E1E4F012161690088E1202D6E92424F9EA3400FAEE8FF012012590088E1202D6E9240EF9EA3400FA9007E1E4F07D147C001216169008AC
:401D40008E1202D6E92418F9EA3400FAEE8FF012012590088E1202D6900891E0FCA3E0FD122A6A7E00227E007F012290480074C0F0121F0B904394E0FFEF54FDFFEFF07BFE
:401D8000007A4679E81241D4EF4405FD7B007A4679E81241E0751300E513C3940A503AAF13EF75F005A42401F582E43442F583AF82AE838E088F09AE08AF098F828E83120D
:401DC0000316AE08AF098F828E83740393FC740493FD1240A6051380BF751300E513C394015064AF13EF75F007A42463F582E43444F583AF82AE838E0A8F0BAE0AAF0B8F29
:401E0000828E831203168B0C8A0D890EAE0AAF0B8F828E83740393FE740493FF8E0F8F10AE0AAF0B8F828E83740593F511740693F512AB0CAA0DA90EAD10AC0FAF12AE1166
:401E4000124048051380957E427F33123F6F7B017A5079031241D4EF4402FD7B017A5079031241E07B017A5079131241D4EF4402FD7B017A5079131241E09043A0E0FFEFE8
:401E80004440FF9043A0EFF09043C2E0FFEF4410FF9043C2EFF07C447D517B007A5179007F0A7E001240487C447D5B7B007A5179227F087E00124048904689743AF07B01A4
:401EC0007A5079077D401241E07B017A5079177D401241E0123E477B007A4379A0C003C002C0017B007A4379B090074A12030DD001D002D0037F0E7E00123E7D9043B0E09F
:401F0000FFEF54FDFF9043B0EFF0227E087F5890085CEEF0A3EFF07B007A4079807F027E007D187C0012416B9043007402F09040007408F07B007A4279127D167C33124166
:401F40009F9042107401F0904210E0FF7FC87E327D007C009008581202CA90085CE0FEA3E0FF8F828E831202B2EC4D4E4F6033904210E0FFEF5480FF7E00EF4E60247FE036
:401F80007E017D007C00123C009008581202B27BFF7AFF79FF78FF1201449008581202CA80B890085CE0FEA3E0FF8F828E831202B27B007A0079007800C312027B70057FFE
:401FC0000112417D7B007A4279227D277C0D12419F9040007409F07B007A4279207D517C1012419F90085EE4F07F197E007D007C009008581202CA90085CE0FEA3E0FF8F3C
:40200000828E831202B2EC4D4E4F604E90085EE0FFEF64036044904225E0FFEF5401FF7E0090085EE0FEEE25E0FEEE4FFFEF5403FF90085EEFF07FE07E017D007C00123C1D
:40204000009008581202B27BFF7AFF79FF78FF1201449008581202CA809D7B007A4079047D007C0112419F9040007449F09042007420F09040047407F0904006E4F090405C
:40208000087448F0904004E4F09040017402F09043A2E0FFEF4401FFEFF0229008F212030D7B017A017961C003C002C0019008F21202D6E92426F9EA3400FAA801AC02AD86
:4020C00003D001D002D0037E007F04120523EF60030222199008F21202D6E92406F9EA3400FAC003C002C0019008F21202D6A801AC02AD03D001D002D0037E007F061206B3
:40210000037B017A02799DC003C002C0019008F21202D6E92406F9EA3400FAA801AC02AD03D001D002D0037E007F061206039008F21202D6E92416F9EA3400FAC003C002E8
:40214000C0019008F21202D6E92420F9EA3400FAA801AC02AD03D001D002D0037E007F061206037B017A02799DC003C002C0019008F21202D6E92416F9EA3400FAA801AC00
:4021800002AD03D001D002D0037E007F061206039008F21202D6E9241CF9EA3400FAC003C002C0019008F21202D6E92426F9EA3400FAA801AC02AD03D001D002D0037E0032
:4021C0007F041206037B017A017961C003C002C0019008F21202D6E9241CF9EA3400FAA801AC02AD03D001D002D0037E007F041206039008F21202D6E92414F9EA3400FA3D
:40220000E475F0021201259008F21202D67D2A7C00122A6A7E002280057E007F01227E007F01229003ED12030D7B017A0379F090051C12030D12418FEF70057E007F01223C
:40224000900160E0FFEF64026003300C057E007F01229003ED1202D6C003C002C0017B017A017967A801AC02AD03D001D002D0037E007F0312060380057E007F01227B0135
:402280007A0379F0C003C002C0017B017A0279959007EA12030DD001D002D0037D061219F29002A7E0FEA3E0FF90051C1202D6E92422F9EA3400FAEE8FF012012590051C69
:4022C0001202D6E92424F9EA3400FAE475F05012012590051C1202D6E9242EF9EA3400FA12001AFFEF540FFFEF4450FFEF12005590051C1202D6E9242FF9EA3400FA1200AC
:402300001AFFEF4402FFEF12005590051C1202D6E92430F9EA3400FAE475F0C812012590051C1202D6E92410F9EA3400FAE475F02812012590051C1202D6E9240EF9EA3489
:4023400000FA9007E1E4F07D147C0012161690051C1202D6E92418F9EA3400FAEE8FF012012590051C1202D6E9241AF9EA3400FA9007E17402F07D1C7C0012161690051CA1
:402380001202D6E92432F9EA3400FAEE8FF012012590051C1202D67D367C00122A6AD20CE47E007F002290084312030D900846ECF0A3EDF07F01123CDA7F19123EE2EF70E5
:4023C00006E47E007F00227F00123CDA90077DE0FEA3E0FFEF54FFFD7F00123A0C90077DE0FEA3E0FF7F00EEFF7E00AD077F01123A0C7B017A07797F7D067C00123A599090
:40240000077FE0FEA3E0FFEF7D00FC90077FE0FEA3E0FFEEFF7E00EE4CFEEF4DFF90077DEEF0A3EFF0900781E0FEA3E0FFEF7D00FC900781E0FEA3E0FFEEFF7E00EE4CFE8B
:40244000EF4DFFEF24FCFFEE34FFFE900848EEF0A3EFF0900846E0FEA3E0FFEF24FFFFEE34FFFE900848E0FCA3E0FDD3ED9FEC9E4010900846E0FEA3E0FF900848EEF0A332
:40248000EFF0900783E0FFEF30E7119008431202D6900848E0FCA3E0FD123A597F00123CDA90077DE0FEA3E0FFEF24FFFFEE34FFFEC3EE9400401990077DE0FEA3E0FFEF3B
:4024C00024FFFFEE34FFFED3EF94FFEE940F40107DFF7F0C123A0C7D0F7F0D123A0C803190077DE0FEA3E0FFEF14FFEF54FFFD7F0C123A0C90077DE0FEA3E0FFEF24FFFFC8
:40250000EE34FFFE7F00EEFF7E00AD077F0D123A0C7D407F1E123AF3900848E0FEA3E0FF2290089312030D900896ECF0A3EDF09008931202D6C003C002C00190089312028E
:40254000D6E92410F9EA3400FA1200FAFFAEF0EF240EFDEE3400FCC20BD001D002D003120B359008931202D6E9242FF9EA3400FA12001AFFEF4410FFEF120055900893127B
:4025800002D6E9242FF9EA3400FA12001AFFEF4408FFEF1200559008931202D6E9242FF9EA3400FA12001AFFEF4401FFEF120055900896E0FEA3E0FFEF2428FFEE3400FE3D
:4025C0009008931202D6E92410F9EA3400FAEE8FF01201259008931202D6E92418F9EA3400FAE475F0001201259008931202D6E9240EF9EA3400FA9007E1E4F07D147C008D
:402600001216169008931202D6E92418F9EA3400FAEE8FF01201259008931202D6E92432F9EA3400FAE475F0001201259008931202D6E9241AF9EA3400FA900896E0FEA38A
:40264000E0FFEF241CFDEE3400FC9007E17402F01216169008931202D6E92432F9EA3400FAEE8FF01201259008931202D6900896E0FEA3E0FFEF2436FDEE3400FC122A6A5E
:402680007E00227B017A05791F90064B12030D12418FEF70030227D67B017A05791F7F007E001212C8300A0B90064B1202D6121815C20A3009237B017A017967C003C00252
:4026C000C00190064B1202D690083012030DD001D002D0031227D7C209900160E0FFEF640160030227D690064B1202D61241EC90064B1202D6C003C002C00190064B12027D
:40270000D6E92410F9EA3400FA1200FAFFAEF0EF240EFDEE3400FCC20BD001D002D003120B3590064B1202D6E9242FF9EA3400FA12001AFFEF4401FFEF12005590064B125C
:4027400002D6E92418F9EA3400FAE475F00012012590064B1202D6E92432F9EA3400FAE475F00012012590064B1202D6E9240EF9EA3400FA9007E1E4F07D147C00121616A0
:4027800090064B1202D6E92418F9EA3400FAEE8FF012012590064B1202D6E9241AF9EA3400FA9007E17402F07D1C7C0012161690064B1202D6E92432F9EA3400FAEE8FF0B7
:4027C0001201257B017A05791F7D367C00122A6A9001607402F02290082D12030D9008301202D6E9242FF9EA3400FA12001AFFEF4408FFEF1200559008301202D6E924124E
:40280000F9EA3400FA74AB75F0BA12012590082D1202D6124156900833EEF0A3EFF0900833E0FEA3E0FF90082D1202D6C003C002C0019008301202D6E92436F9EA3400FA68
:40284000A801AC02AD03D001D002D003120603900833E0FEA3E0FFEF2428FFEE3400FE9008301202D6E92410F9EA3400FAEE8FF01201259008301202D6E92418F9EA3400C8
:40288000FAE475F0001201259008301202D6E92432F9EA3400FAE475F0001201259008301202D6E9240EF9EA3400FA9007E1E4F07D147C001216169008301202D6E92418CE
:4028C000F9EA3400FAEE8FF01201259008301202D6E9241AF9EA3400FA900833E0FEA3E0FFEF241CFDEE3400FC9007E17402F01216169008301202D6E92432F9EA3400FAA5
:40290000EE8FF01201259008301202D6900833E0FEA3E0FFEF2436FDEE3400FC122A6A7E00229008EC12030D1241FD123FF87F00123CDA7D007F08123A0C7D007F09123AD8
:402940000C7DFF7F0A123A0C7D0F7F0B123A0C7D007F0C123A0C7D007F0D123A0C7D007F04123A0C7D107F05123A0C7F01123CDA7DB07F18123A0C7D3F7F08123A0C7D30F2
:402980007F09123A0C7D397F10123A0C7DF77F11123A0C7F02123CDA7D017F00123AF37D327F02123A0C7DEE7F0A123A0C7D057F0B123A0C7D127F04123A0C7D127F061291
:4029C0003A0C7D0C7F07123A0C7F03123CDA9008EC1202D612001AFD7F04123A0C9008EC1202D6E92401F9EA3400FA12001AFD7F05123A0C9008EC1202D6E92402F9EA34E8
:402A000000FA12001AFD7F02123A0C9008EC1202D6E92403F9EA3400FA12001AFD7F03123A0C9008EC1202D6E92404F9EA3400FA12001AFD7F00123A0C9008EC1202D6E921
:402A40002405F9EA3400FA12001AFD7F01123A0C7D007C007F0012396F7D007C017F1012396F7D047F1F123A0C2290085F12030D900862ECF0A3EDF0900864E4F07F00123D
:402A80003CDA7D007F04123A0C7D107F05123A0C7D007F02123A0C7D107F03123A0C7B017A0879647D017C00123AA690085F1202D6900862E0FCA3E0FD123AA6900862E0B8
:402AC000FEA3E0FFEF04FFEF54FFFD7F06123A0C900862E0FEA3E0FFEF2401FFEE3410FE7F00EEFF7E00AD077F07123A0C7D087F1C123B407D887F1B123AF37D807F1F12F7
:402B00003AF37D807F1F123B407D0A7F1C123B407D087F1F123AF37F1C123EE2EF30E3F77D087F1F123B407F00123CDA900862E475F0011200CE900862E0FEA3E0FFEF5451
:402B4000FFFD7F00123A0C900862E0FEA3E0FF7F00EEFF7E00AD077F01123A0C7B017A0779857D077C00123A597F1D123EE2EF30E131900788E0FFEF30E5157D087F1F12C7
:402B80003B407D087F1F123AF37D127F1D123B407D0A7F1C123B407D027F1D123B407F012280037F00227F0022900963E4F0905120E0FFEF5480FFEFF0905122E0FFEF544C
:402BC000F0FF900963EFF0900963E0FFEF440FFF905122EFF0905123E0FFEF54F0FF900963EFF0900963E0FF905123EFF0905124E0FFEF54F0FF900963EFF0900963E0FF93
:402C0000905124EFF0905120E0FFEF54DFFFEFF0905120E0FFEF4440FFEFF07F007E00123FA0905120E0FFEF4410FFEFF07F017E00123FA0905121E0FF900963EFF0905124
:402C400020E0FFEF54EFFFEFF0900963E0FFEF5408FF900963EFF0905120E0FFEF4410FFEFF07F017E00123FA0905120E0FFEF54EFFFEFF0900963E0FFEF709F905120E0AB
:402C8000FFEF54BFFFEFF0905120E0FFEF5480FFEFF0905122E0FFEF54F0FF900963EFF0900963E0FF905122EFF0905123E0FFEF54F0FF900963EFF0900963E0FFEF440FFB
:402CC000FF905123EFF0905124E0FFEF54F0FF900963EFF0900963E0FFEF440FFF905124EFF02290088912030D90088CECF0A3EDF090088CE0FEA3E0FFEF54FFFF90088936
:402D00001202D6E92403F9EA3400FAEF12003390088CE0FEA3E0FFEEFF7E009008891202D6E92402F9EA3400FAEF1200339008891202D6E92402F9EA3400FA12001AFFEFC1
:402D4000FD7C0090088CE0FEA3E0FFEEFF7E00C3ED9FEC9E50339008891202D6E92401F9EA3400FA74011200339008891202D6E92401F9EA3400FA12001AFFEF700B900854
:402D8000891202D674011200339008891202D6E92403F9EA3400FA12001AFF7E0090088CE0FCA3E0FD7C00C3EF9DEE9C505B9008891202D6E92402F9EA3400FA74011200DF
:402DC000339008891202D6E92402F9EA3400FA12001AFFEF70339008891202D6E92401F9EA3400FA74011200339008891202D6E92401F9EA3400FA12001AFFEF700B90087D
:402E0000891202D674011200332290068812030D90068EE4F0A3E4F09006881202D6C003C002C0017B017A02799DA801AC02AD03D001D002D0037E007F0612060390068B7C
:402E40001202D6C003C002C0017B017A017961A801AC02AD03D001D002D0037E007F041206037B017A02799D12292212418FEF70057E007F01227B017A02799912302C90DF
:402E8000068EE4F0A3E4F090068EE0FEA3E0FFC3EF94FFEE945F4003022F2C7B017A0679907D2A7C001223A6EF4E607390069CE0FEA3E0FFEF64067003EE640870619006B7
:402EC000A4E0FEA3E0FFEF64024E70537B017A027999C003C002C0017B017A0679ACA801AC02AD03D001D002D0037E007F04120523EF702B7B017A0679A6C003C002C00154
:402F00007B017A0279A9A801AC02AD03D001D002D0037E007F06120603E47E007F002290068EE475F0011200CE022E877E007F01229007A9EEF0A3EFF09007B5E4F090075D
:402F4000B6E4F09007A9E0FEA3E0FFC3EF940AEE940040459007A9E0FEA3E0FF7C007D0A120079AF05EF2430FF9007B5E0FE74B02EF582E43407F583EFF09007A9E0FEA382
:402F8000E0FF7C007D0A1200799007A9EEF0A3EFF09007B5E004F080AA9007A9E0FEA3E0FF7C007D0A120079AF05EF2430FF9007B5E0FE74B02EF582E43407F583EFF0909D
:402FC00007B5E0FF9007B6EFF09007B5E0FFEF64FF603E9007B5E0FF74B02FF582E43407F583E0FF9007B5E0FEEEFD7C009007B6E0FEEEFB7A00C3EB9DFDEA9CFC74AB2D4F
:40300000F58274073CF583EFF09007B5E014F080B89007B6E0FF74AC2FF582E43407F583E4F07B017A0779AB1239BE2290071812030D7B017A02799DC003C002C0017B0159
:403040007A077921A801AC02AD03D001D002D0037E007F061206037E007F067DFF7B017A07791B1203999007277408F0A37406F0900729E4F0A37401F090072B7408F0A338
:40308000E4F090072D7406F090072E7404F090072FE4F0A37401F07E007F067D007B017A07793B1203997B017A02799DC003C002C0017B017A077931A801AC02AD03D0018D
:4030C000D002D0037E007F061206039007181202D6C003C002C0017B017A077941A801AC02AD03D001D002D0037E007F041206037B017A017961C003C002C0017B017A07CA
:403100007937A801AC02AD03D001D002D0037E007F041206037B017A07791B7D2A7C00122A6A7E002212412C7B017A0779D6C003C002C0017B017A0779D290068B12030DB0
:40314000D001D002D003122E0A7BFF7A3C79941239BE7D007F0112386E9002A9E0FF123FCD7F3A1241AE9002AAE0FF123FCD7F3A1241AE9002ABE0FF123FCD7F3A1241AEBB
:403180009002ACE0FF123FCD7F3A1241AE9002ADE0FF123FCD7F3A1241AE9002AEE0FF123FCD7BFF7A3C799F120656EF4E70F37FE87E037D007C001235A87F01123D1F7B58
:4031C000FF7A3C79AA1239BE7D007F0112386E900295E0FF7E00122F317F2E1241AE900296E0FF7E00122F317F2E1241AE900297E0FF7E00122F317F2E1241AE900298E040
:40320000FF7E00122F317BFF7A3C79B512222312268380F2808C2275930078007583467582E8E04401F0009046ECE0F99046FAE0FAB903225420B40012B8001AEA901FFF16
:40324000F07401901FFEF09046F6F0901FFEE06005901FFFE0FA90480074C0F075812190000078007920E4F0A3D8FCD9FAEA9007A4F002001175191F751AFD121D6B023215
:40328000BC023125E493A3F8E493A34003F68001F208DFF48029E493A3F85407240CC8C333C4540F4420C8834004F456800146F6DFE4800B0102040810204080903614E417
:4032C0007E019360BCA3FF543F30E509541FFEE493A360010ECF54C025E060A840B8E493A3FAE493A3F8E493A3C8C582C8CAC583CAF0A3C8C582C8CAC583CADFE9DEE78025
:40330000BE90086512030D904722E0FFEF5402FF7E00EF4E706C904722E0FFEF1313543FFFEF70567B017A0879687D0212374AEF6402703E900868E0FFEF6015900869E0B1
:40334000FF7E009008651202D6EE8FF0120125801A900869E0FF7E00C3E49FFFE49EFE9008651202D6EE8FF012012590086AE4F0801690086A74FFF0800E90086A7407F02F
:40338000800690086A7410F090086AE0FFEF640760031240D790086AE0FF224745542000485454502F312E3020323030204F4B0D0A436F6E74656E742D547970653A20744E
:4033C0006578742F68746D6C0D0A0D0A003C68323E50536F432054656D70657261747572652069732025642064656720433C2F68323E002F20003C7469746C653E454E43F7
:4034000032384A36302D50536F43333C2F7469746C653E003C68313E454E4332384A36302D50536F43333C2F68313E003C68723E00900745EBF0A3EAF0A3E9F0900748E035
:40344000FBA3E0FAA3E0F912001AFE900745E0FBA3E0FAA3E0F912001AFF6E702AEF600E90074B74FFF5F01200CE45F070037F0022900746E475F0011200CE900749E4754B
:40348000F0011200CE80B5900745E0FBA3E0FAA3E0F912001AFDD3EE6480F8ED64809840037F0122900748E0FBA3E0FAA3E0F912001AFFC3ED9FFF227F287E007D007C00D6
:4034C0001235A87F03123C4B7F057E007D007C001235A87F03123C4B7F0F7E007D007C001235A87F03123C4B7F017E007D007C001235A87F02123C4B7F057E007D007C00B3
:403500001235A87F06123D1F7F0E123D1F7F2C123D1F7F08123D1F7F01123D1F7F0C123D1F7F03123D1F7F057E007D007C001235A8229008C0EFF07F02123CDA9008C0E0A5
:40354000FD7F14123A0C7D017F12123AF37F0A123D639008C3EFF09008C3E0FFEF20E0ED7D017F12123B407F18123D637E009008C1EEF0A3EFF09008C1E0FEA3E0FFC006EF
:40358000C0077F19123D637E00EF7D00FCD007D006EE4CFEEF4DFF9008C1EEF0A3EFF09008C1E0FEA3E0FF2290FFFC1203481202CA7F007E807D007C00851983851A8212D0
:4035C00002BED312027B40309007A51202B2123C00851983851A82C083C0821202B2C3EF9400FFEE9480FEED9400FDEC9400FCD082D0831202CA80B990079B1202B28519CB
:4036000083851A821202BE120151123C00900004120348224607D600A0C914C8004407D2C0A8019942077D0000440299C0A801014402A3C0A8010142029300504202A70351
:40364000E842016504B0C10941016000C10A410955004407A003FC28B644079B0001052A41079F434407A58295000041093C0041093B00410972004308BB000000009008BC
:403680006B12030D123F11900870EFF0900870E0FFEF6407704990086EE4F0A37401F090086EE0FEA3E0FFD3EF9400EE9400402F90086B1202D6123301900870EFF09008F9
:4036C00070E0FFEFB407187F017E007D007C001235A890086E74FF75F0FF1200CE80C0900870E0FF2290083512030D900838ECF0A3EDF0900838E0FEA3E0FFEF4E7006E4EB
:403700007E007F002290083AE4F0A3E4F0900838E0FEA3E0FF90083AE0FCA3E0FDC3ED9FEC9E501D900835E475F0011202DF12001AFF12406E90083AE475F0011200CE8038
:40374000CC90083AE0FEA3E0FF229008B112030D9008B4EDF09008B5E4F09008B4E0FF9008B5E0FEEEC39F5040904722E0FFEF5401FF7E00EF4E6003D38001C340097F0125
:403780007E00123FA080E2904720E0FF9008B11202D69008B5E0FEE92EF9E43AFAEF1200559008B5E004F080B19008B5E0FF2290082512030D900828ECF0A3EDF090082A29
:4037C0001202D612001AFFEF604090082A1202D612001AFF9008251202D6E92436F9EA3400FA900828E0FCA3E0FDE92DF9EA3CFAEF120055900828E475F0011200CE900830
:403800002BE475F0011200CE80B3900828E0FEA3E0FF2290093FEFF09009407407F0904722E0FFEF5402FF7E00EF4E603590472074B6F090472074E1F0904720740EF09011
:403840004722E0FFEF5402FF7E00EF4E700C90093FE0FF904720EFF0800E9009407409F080069009407404F0900940E0FF22900933EFF0900934EDF0900933E0FFEF12037F
:4038800022389100389E0138AB0238B803000038C4900934E0FFEF2480FF123D1F22900934E0FFEF24C0FF123D1F22900934E0FFEF2494FF123D1F22900934E0FFEF24D421
:4038C000FF123D1F22900964EFF0122BA9905120E0FFEF4420FFEFF0905120E0FFEF54BFFFEFF0905120E0FFEF54F0FFEFF0905120C083C082E0FF900964E0FEEE4410FE35
:40390000EF4EFFD082D083EFF07F017E00123FA0905120E0FFEF54EFFFEFF02290083C12030D90083FECF0A3EDF0900841E4F0A3E4F090083FE0FEA3E0FF900841E0FCA3EA
:40394000E0FDC3ED9FEC9E501D1241F790083CE475F0011202DFEF120055900841E475F0011200CE80CC900841E0FEA3E0FF229008EFEFF09008F0ECF0A3EDF09008EFE018
:40398000FFEFD3941440037F01227F02123CDA9008EFE0FD7F14123A0C9008F0E0FEA3E0FFAD077F16123A0C9008F0E0FEA3E0FFEEFF7E00AD077F17123A0C7F002290080A
:4039C000A712030D9008AA7401F09008A71202D612001AFF9008ABEFF09008ABE0FFEF602A9008ABE0FF123E119008A71202D69008AAE0FFE92FF9E43AFA12001AFF90088D
:403A0000ABEFF09008AAE004F080CE22900911EFF0900912EDF0900911E0FFEFD3941F40037F0122900911E0FFEF4440FF900911EFF07F00123EB17B017A0979117D017CFB
:403A4000001236E57B017A0979127D017C001236E57F01123EB17F002290081512030D900818ECF0A3EDF090081A743AF07F00123EB17B017A08791A7D017C001236E59053
:403A800008151202D6900818E0FCA3E0FD12391C90081BEEF0A3EFF07F01123EB190081BE0FEA3E0FF2290081D12030D900820ECF0A3EDF0900822747AF07F00123EB17B45
:403AC000017A0879227D017C001236E590081D1202D6900820E0FCA3E0FD1236E5900823EEF0A3EFF07F01123EB1900823E0FEA3E0FF22900913EFF0900914EDF090091307
:403B0000E0FFEFD3941F40037F0122900913E0FFEF4480FF900913EFF07F00123EB17B017A0979137D017C001236E57B017A0979147D017C001236E57F01123EB17F00227D
:403B4000900915EFF0900916EDF0900915E0FFEFD3941F40037F0122900915E0FFEF44A0FF900915EFF07F00123EB17B017A0979157D017C001236E57B017A0979167D0119
:403B80007C001236E57F01123EB17F0022900952E4F0906462E0FFEF5420FF7E00EF4E70047F0180027F00EF7007906451E0FF80E1124141900952EFF0906491E0FFEF4454
:403BC00003FFEFF0906491E0FFEF54FCFFEFF0900952E0FF1240BF2212414190096EEFF09043A0E0FFEF4408FFEFF09043B0E0FFEF4408FFEFF090096EE0FF1240BF2200ED
:403C0000EC4D4E700D78FCEF24E950032840FD22000078C5904800E0C403035403903C479325E0240FF404FBEF28FF78FFEE38FEED38FDEC38FC50D7EF2BFFEE38FEED38D3
:403C4000FDEC38FC40F22205020304900965EFF0905120E0FFEF549FFFEFF0905120E0FFEF54F0FFEFF0905120C083C082E0FF900965E0FEEE4410FEEF4EFFD082D083EF06
:403C8000F07F017E00123FA0905120E0FFEF54EFFFEFF022526F75746572204D414300676F6F676C652E636F6D00476F6F676C652E636F6D00474554202F20485454502F2F
:403CC000312E310D0A486F73743A20676F6F676C652E636F6D0D0A0D0A00900917EFF0900917E0FFEFD3940350347F1F123EE2900918EFF0900918E0FFEF54FCFF90091833
:403D0000EFF0900918E0FF900917E0FEEF4EFF900918EFF0900918E0FD7F1F123A0C22900937EFF0900937E0FFEFC4540FFF900938EFF0122BA9900938E0FFEF540FFF907A
:403D40000938EFF0900938E0FF123C4B900937E0FFEF540FFF900938EFF0900938E0FF123C4B2290090FEFF07F00123EB17B017A09790F7D017C001236E57B017A09791082
:403D80007D017C0012391C7B017A0979107D017C0012391C7F01123EB1900910E0FF22900947E4F0124141900947EFF0906491E0FFEF4420FFEFF0906493E0FFEF4410FF4A
:403DC000EFF0906492E0FFEF4410FFEFF0900947E0FF1240BF1241C8229008AC12030D9008B07402F09008B0E0FFEF601E9008AC1202D612367E9008AFEFF09008AFE0FF69
:403E0000EF70089008B0E014F080DA9008AFE0FF22900935EFF0122BA9900935E0FFEFC4540FFF900936EFF0900936E0FF1238C5900935E0FFEF540FFF900936EFF0900948
:403E400036E0FF1238C5227B0C7A0179CF1241D4900974EFF0900974E0FFEF5407FF90586EEFF0900974E0FFEFC4540FFFEF540FFF90586FEFF09058767444F0227586008A
:403E8000EF4E6027EF60010E75930090074AE0F595A3E0F585A3E0F5848B938A838982E0A30586F0A31586DFF6DEF4E4F593F59522900919EFF0905100E0FFEF54BFFF9081
:403EC000091AEFF0900919E0FFEFC4333354C0FFEF5440FF90091AE0FEEF4EFF905100EFF02290090DEFF07F00123EB17B017A09790D7D017C001236E57B017A09790E7D1E
:403F0000017C0012391C7F01123EB190090EE0FF2290096774FFF0123BD8123F40EF70147F01123813EFB407069009677407F01240D780069009677404F0900967E0FF22D8
:403F40009009417404F0124141900942EFF0900972E0FFEF700B9009727401F0900941E4F0900942E0FF1240BF900941E0FF22ACEAADA08E838F82E493F9601CA3E493F599
:403F8000EAA3E493F5A0A3E49360F1FAA3E493F8A3E493F2DAF6D9E48DA08CEA22000000EEFA90079FE0F88FF0A4FFAEF0E88AF0A42EFEE5F03400FDEF24C9FF78FFEE382D
:403FC000FEED38FDE438FC5003023C0022900966EFF0900966E0FFEFC4540FFFEF90446A93FF1241AE900966E0FFEF540FFFEF90446A93FF1241AE2290094674FFF07F0073
:40400000123EB17B017A0979467D017C001236E57F01123EB17FE87E037D007C001235A822EFB40A07740D12402C740A309811A899B8130CC2983098FDA899C298B811F68C
:404040003099FDC299F59922758600EF4E601BEF60010E8C838D828B958A858984E493A30586F0A31586DFF5DEF3E4F59522900945EFF0900945E0FF906441EFF012410219
:404080007E00EF30E0F7906451E0FF22906481740FF0123B8D124102124117906483E4F0906482E4F022EC4D6011ED60010C8B938A838982E4F0A3DDFCDCFA75930022EF95
:4040C00054016004D2AF8002C2AFEF5402FF9044F4E054FD4FF022124141900971EFF0900972E4F0900971E0FF1240BF22900955E0FFEF700912408C9009557401F0123DC8
:404100009F2290094BE4F0906463E0FF90094BEFF090094BE0FF2290094CE4F0906462E0FF90094CEFF090094CE0FF2290093BE0FFEF70091234B890093B7401F01241BC2F
:40414000229044F4E0F84402F0E85402FF10AF012274014FFF22E4FFFE12001A600C0FEF70010E09E970F20A80EF228B938A838982EFF0A3EEF0A3EDF07593002290097312
:40418000EFF0900973E0FF900973EFF080FE227F11123532EF4E60047F0180027F00228B938A838982EDF0A3ECF075930022900962EFF0900962E0FF123E11227F0C123D90
:4041C0001F90093C7401F0229043A2E0FFEF4401FFEFF0228B938A838982E0759300FF228B938A838982EDF0759300229008F512030D7E007F01227F0012406E221240EDD1
:4042000022005110001000513000400051C000100051F0001001000000800101000F0001140008000140000A00014C00020001500000200D00520200020103006401810FA2
:4042400001000D050807010D020F05150D17022D08330E37013B083F4059045F010101300441060807200EAA160117141D031E2021042240232024512508260627402A4023
:404280002D8131083765384039083C113E043F80450A47204D204E024F08566A57C065046C046D016E866F15748075807601C0F0C2F0C4E0CA98CCF2CEFAD0E0D230D840FC
:4042C00001023000110202044D052007D0080209550A340BAA0C0D0D0E0E401002120D162019941A401B691C4D1D331FC4204D24022638284D300F323033F03440370F39A1
:40430000803A023B083E105440580459045B045F0180018801A801B601BE40D409D804DB04DF0101032D00100340041807410C800D200E500F0813201509171018011E502F
:404340001F10254C310C37603C103D88582059095A80600166606720852090189109928099099A209B719D24A080A210A384A908AA02C0FAC2F0C472CC30CE70D60FD878CD
:40438000010404B908BF04D904DF010105082720AA10AD20AE40B210B420B780EA80010701AB20014108030857015B248708C040D480D660E4400142049F04AB20B301EA22
:4043C00080014302AB04EA80015003000102140801043200C056920904602100D20704380004928004010400920AFA10058407006800960000800004008400000084960074
:404400000080077F1D000000E0080000880000010032054000060DFCEB3DFFFFFF2200F008040000000000022804040404000000010000C00040011011C00100114001406F
:40444000010000000000000000000000000000000060000463630023000000007F7F000000000001008043D100803031323334353637383941424344454600000000000039
:4044800000000000000000000000000000000000000000000000000000000000000000000000000000000000000000000000000000000000000000000000000000000000FC
:4044C00000000000000000000000000000000000000000000000000000000000000000000000000000000000000000000000000000000000000000000000000000000000BC
:40450000000000000000000000000000000000000000000000000000000000000000000000000000000000000000000000000000000000000000000000000000000000007B
:40454000000000000000000000000000000000000000000000000000000000000000000000000000000000000000000000000000000000000000000000000000000000003B
:0200000480007A
:0200000490006A
:0400000000000005F7
:0200000490105A
:04000000AFAC90BC55
:0200000490303A
:02000000983C2A
:0200000490501A
:0C00000000011E02806903011E2118A5EA
:0200000490402A
:4000000000000000000000000000000000000000000000000000000000000000000000000000000000000000000000000000000000000000000000000000000000000000C0
:00000001FF
