:10000000020799008F828E83E0540100000070F88F
:100010002278FFE4F6D8FD0207F7BB010689828A41
:1000200083E0225002E722BBFE02E32289828A8318
:10003000E49322BB010689828A83F0225002F722D0
:10004000BBFE01F322EF8DF0A4A8F0CF8CF0A42822
:10005000CE8DF0A42EFE22BC000BBE0029EF8DF049
:1000600084FFADF022E4CCF875F008EF2FFFEE33FB
:10007000FEEC33FCEE9DEC984005FCEE9DFE0FD5AA
:10008000F0E9E4CEFD22EDF8F5F0EE8420D21CFE7E
:10009000ADF075F008EF2FFFED33FD4007985006E7
:1000A000D5F0F222C398FD0FD5F0EA22C5F0F8A3EF
:1000B000E028F0C5F0F8E582158270021583E0387B
:1000C000F022EF2BFFEE3AFEED39FDEC38FC22E892
:1000D0008FF0A4CC8BF0A42CFCE98EF0A42CFC8A2D
:1000E000F0EDA42CFCEA8EF0A4CDA8F08BF0A42DAA
:1000F000CC3825F0FDE98FF0A42CCD35F0FCEB8E4B
:10010000F0A4FEA9F0EB8FF0A4CFC5F02ECD39FE00
:10011000E43CFCEAA42DCE35F0FDE43CFC2275F075
:1001200008758200EF2FFFEE33FECD33CDCC33CCFC
:10013000C58233C5829BED9AEC99E58298400CF517
:1001400082EE9BFEED9AFDEC99FC0FD5F0D6E4CE45
:10015000FBE4CDFAE4CCF9A88222B800C1B9005979
:10016000BA002DEC8BF084CFCECDFCE5F0CBF97846
:1001700018EF2FFFEE33FEED33FDEC33FCEB33FBDA
:1001800010D703994004EB99FB0FD8E5E4F9FA2264
:100190007818EF2FFFEE33FEED33FDEC33FCC9335F
:1001A000C910D7059BE99A4007EC9BFCE99AF90F27
:1001B000D8E0E4C9FAE4CCFB2275F010EF2FFFEE93
:1001C00033FEED33FDCC33CCC833C810D7079BECDE
:1001D0009AE899400AED9BFDEC9AFCE899F80FD556
:1001E000F0DAE4CDFBE4CCFAE4C8F922EB9FF5F0B9
:1001F000EA9E42F0E99D42F0E89C45F022E0FCA333
:10020000E0FDA3E0FEA3E0FF22E0F8A3E0F9A3E015
:10021000FAA3E0FB22ECF0A3EDF0A3EEF0A3EFF0E5
:1002200022E0FBA3E0FAA3E0F922F8E0FBA3A3E0BD
:10023000F925F0F0E582158270021583E0FA38F0B6
:1002400022EBF0A3EAF0A3E9F022E493FB7401931C
:10025000FA740293F922D083D082F8E49370127476
:100260000193700DA3A393F8740193F5828883E43E
:10027000737402936860EFA3A3A380DFE515258262
:10028000F582E5143583F583B514048582152210B3
:10029000AF06858215F51422858215F514D2AF229A
:1002A000EC8EF0A4CCC5F0CCCDF8EFA4CEC5F02DEB
:1002B000FDE43CFCE8A42EC8C5F03DFDE43CFCEFA9
:1002C000A4FFE5F028FEE43DFDE43CFC22E709F64E
:1002D00008DFFA8046E709F208DFFA803E88828C60
:1002E00083E709F0A3DFFA8032E309F608DFFA803A
:1002F0006EE309F208DFFA806688828C83E309F0F6
:10030000A3DFFA805A89828A83E0A3F608DFFA80A5
:100310004E89828A83E0A3F208DFFA804280D2808D
:10032000FA80C680D4805580F28029801080A68013
:10033000EA809A80A880DA80E280CA802988848C4A
:100340008589828A83E493A30586F0A30586DFF579
:10035000DEF3800B89828A83E493A3F608DFF9EC4D
:10036000FAA9F0EDFB2288848C8589828A83E0A338
:100370000586F0A30586DFF6DEF480E389828A83B2
:10038000E493A3F208DFF980D688F0EF60010E4E07
:1003900060CD88F0ED2402B4040050C3F582EB2454
:1003A00002B4040050B9232345822390031D7390A7
:1003B000480074C0F0120697904394E0FFEF54FD9C
:1003C000FFEFF07B007A4679E8120CCDEF4405FD93
:1003D0007B007A4679E8120CD9751300E513C394B3
:1003E00009503AAF13EF75F005A424E9F582E4341F
:1003F0000CF583AF82AE838E088F09AE08AF098FEC
:10040000828E8312024AAE08AF098F828E837403F4
:1004100093FC740493FD120C01051380BF75130047
:10042000E513C394015064AF13EF75F007A424469D
:10043000F582E4340FF583AF82AE838E0A8F0BAE64
:100440000AAF0B8F828E8312024A8B0C8A0D890EA3
:10045000AE0AAF0B8F828E83740393FE740493FFF6
:100460008E0F8F10AE0AAF0B8F828E83740593F5BB
:1004700011740693F512AB0CAA0DA90EAD10AC0FBA
:10048000AF12AE11120BA2051380957E0D7F1612CE
:100490000B207B017A507903120CCDEF4402FD7BD7
:1004A000017A507903120CD97B017A507913120C1E
:1004B000CDEF4402FD7B017A507913120CD99043A1
:1004C000A0E0FFEF4440FF9043A0EFF09043C2E074
:1004D000FFEF4410FF9043C2EFF07C0F7D347B00B0
:1004E0007A5179007F0A7E00120BA27C0F7D3E7B41
:1004F000007A5179627F087E00120BA290468974BF
:100500003AF07B017A5079077D40120CD97B017A51
:100510005079177D40120CD9120A857B007A4379F5
:10052000A0C003C002C0017B007A4379B090008371
:10053000120241D001D002D0037F0E7E00120ABB0E
:100540009043B0E0FFEF54FDFF9043B0EFF02290F6
:10055000013F74FFF0120CE57F00120AEF7B017A75
:1005600001793F7D017C001208EF7F01120AEF7FC5
:10057000327E007D007C0012088390013F745FF0A2
:100580007F00120AEF7B017A01793F7D017C001226
:1005900008EF90013F7402F07B017A01793F7D0101
:1005A0007C001208EF7F01120AEF90013F7454F0B3
:1005B0007F00120AEF7B017A01793F7D017C0012F6
:1005C00008EF90013F7414F07B017A01793F7D01BF
:1005D0007C001208EF7F01120AEF90013F7456F081
:1005E0007F00120AEF7B017A01793F7D017C0012C6
:1005F00008EF90013F7480F07B017A01793F7D0123
:100600007C001208EF7F01120AEF90013F7457F04F
:100610007F00120AEF7B017A01793F7D017C001295
:1006200008EF90013F7438F07B017A01793F7D013A
:100630007C001208EF7F01120AEF90013F745FF017
:100640007F00120AEF7B017A01793F7D017C001265
:1006500008EF90013F7403F07B017A01793F7D013F
:100660007C001208EF7F01120AEF90013F7412F034
:100670007F00120AEF7B017A01793F7D017C001235
:1006800008EF7B017A01793F7D017C001209547FDC
:1006900001120AEF80FE227E007FA29000A6EEF0FB
:1006A000A3EFF07B007A4079807F207E007D187C6C
:1006B00000120C9B9043007402F09040007408F00C
:1006C0009042007403F07B0C7A017908120CCD90F3
:1006D00046A1EFF07B007A4279227D427C02120C27
:1006E000BE7B007A4279207D517C10120CBE9000B6
:1006F000A8E4F07F197E007D007C009000A2120229
:10070000159000A6E0FEA3E0FF8F828E831201FD0C
:10071000EC4D4E4F604E9000A8E0FFEF6403604444
:10072000904225E0FFEF5401FF7E009000A8E0FE1C
:10073000EE25E0FEEE4FFFEF5403FF9000A8EFF030
:100740007FE07E017D007C00120A009000A2120171
:10075000FD7BFF7AFF79FF78FF1200C29000A212A2
:100760000215809D7B007A4079047D007C01120C8B
:10077000BE9040047407F0904006E4F09040087486
:1007800048F0904004E4F09040017402F09043A2DD
:10079000E0FFEF4401FFEFF02275930078007583CE
:1007A000467582E8E04401F0009046ECE0F990469E
:1007B000FAE0FAB903225420B40012B8001AEA9001
:1007C0001FFFF07401901FFEF09046F6F0901FFEA0
:1007D000E06005901FFFE0FA90480074C0F075815A
:1007E0001590000078007920E4F0A3D8FCD9FAEA4B
:1007F000900043F002001175141F7515FD1203AF30
:1008000002083E02054FE493A3F8E493A34003F6E5
:100810008001F208DFF48029E493A3F85407240C44
:10082000C8C333C4540F4420C8834004F456800125
:1008300046F6DFE4800B0102040810204080900B94
:100840007AE47E019360BCA3FF543F30E509541F56
:10085000FEE493A360010ECF54C025E060A840B829
:10086000E493A3FAE493A3F8E493A3C8C582C8CAA7
:10087000C583CAF0A3C8C582C8CAC583CADFE9DE7A
:10088000E780BE90FFFC12027C1202157F007E8082
:100890007D007C00851483851582120209D3120124
:1008A000EC40309000441201FD120A00851483854B
:1008B0001582C083C0821201FDC3EF9400FFEE9445
:1008C00080FEED9400FDEC9400FCD082D0831202F7
:1008D0001580B990003A1201FD85148385158212A6
:1008E00002091200CF120A0090000412027C22902A
:1008F0000086120241900089ECF0A3EDF09000898F
:10090000E0FEA3E0FFEF4E7006E47E007F00229041
:10091000008BE4F0A3E4F0900089E0FEA3E0FF90F8
:10092000008BE0FCA3E0FDC3ED9FEC9E501D90000A
:1009300086E475F00112022A12001AFF120B4E9083
:10094000008BE475F0011200AC80CC90008BE0FECF
:10095000A3E0FF2290008D120241900090ECF0A3E2
:10096000EDF0900092E4F0A3E4F0900090E0FEA39C
:10097000E0FF900092E0FCA3E0FDC3ED9FEC9E50F1
:100980001D120CAD90008DE475F00112022AEF12D9
:100990000033900092E475F0011200AC80CC90001E
:1009A00092E0FEA3E0FF2290014BE4F0906462E04D
:1009B000FFEF5420FF7E00EF4E70047F0180027F26
:1009C00000EF7007906451E0FF80E1120C86900107
:1009D0004BEFF0906491E0FFEF4403FFEFF0906481
:1009E00091E0FFEF54FCFFEFF090014BE0FF120CA1
:0E09F0001A229043A2E0FFEF4401FFEFF02235
:100A0000EC4D4E700D78FCEF24E950032840FD2298
:100A1000000078C5904800E0C403035403900A47DF
:100A20009325E0240FF404FBEF28FF78FFEE38FE57
:100A3000ED38FDEC38FC50D7EF2BFFEE38FEED38EB
:100A4000FDEC38FC40F22205020304900140E4F082
:100A5000120C86900140EFF0906491E0FFEF44208B
:100A6000FFEFF0906493E0FFEF4410FFEFF090642D
:100A700092E0FFEF4410FFEFF0900140E0FF120C16
:100A80001A1209F2227B0C7A0179CF120CCD900157
:100A900062EFF0900162E0FFEF5407FF90586EEFB5
:100AA000F0900162E0FFEFC4540FFFEF540FFF908E
:100AB000586FEFF09058767444F022758600EF4E30
:100AC0006027EF60010E759300900083E0F595A319
:100AD000E0F585A3E0F5848B938A838982E0A30502
:100AE00086F0A31586DFF6DEF4E4F593F595229003
:100AF000011CEFF0905100E0FFEF54BFFF90011D8B
:100B0000EFF090011CE0FFEFC4333354C0FFEF540B
:100B100040FF90011DE0FEEF4EFF905100EFF022EC
:100B2000ACEAADA08E838F82E493F9601CA3E493BA
:100B3000F5EAA3E493F5A0A3E49360F1FAA3E493A8
:100B4000F8A3E493F2DAF6D9E48DA08CEA229001BE
:100B50003EEFF0120C477E00EF30E1F790013EE0EF
:100B6000FF120BC8120C477E00EF30E3F7120C5C4B
:100B70007E00EF30E5F7120C712241014E00440077
:100B80003F03EF148044003A000101D041003E428F
:100B900044004480E800004300D000000041016AA6
:100BA0000000758600EF4E601BEF60010E8C838D98
:100BB000828B958A858984E493A30586F0A31586A4
:100BC000DFF5DEF3E4F59522900146EFF0906463E3
:100BD000E0FFEF5404FF7E00EF4E60F1900146E02D
:100BE000FF906441EFF022906481740FF01209A726
:100BF000120C47120C5C906483E4F0906482E4F081
:100C000022EC4D6011ED60010C8B938A838982E4A4
:100C1000F0A3DDFCDCFA75930022EF54016004D2EE
:100C2000AF8002C2AFEF5402FF9044F4E054FD4F96
:100C3000F02290014EE0FFEF7009120BE790014E99
:100C40007401F0120A4B22900144E4F0906463E0D6
:100C5000FF900144EFF0900144E0FF22900145E451
:100C6000F0906462E0FF900145EFF0900145E0FFF5
:100C700022900147E4F0906451E0FF900147EFF0CB
:100C8000900147E0FF229044F4E0F84402F0E85479
:100C900002FF10AF012274014FFF228B938A8389D8
:100CA00082EFF0A3EEF0A3EDF0759300227F017EBA
:100CB000007D007C001208837F00120B4E228B9374
:100CC0008A838982EDF0A3ECF0759300228B938ADE
:100CD000838982E0759300FF228B938A838982ED5A
:100CE000F075930022120C32220051100050005176
:100CF000C000100051F00010010000008001010050
:100D00000F0001140008000140000A00014C00021D
:100D10000001500000200D00520200020103006497
:100D200001810F01000D050807010D020F05150DCA
:100D300017022D08330E37013B083F4059045F016D
:100D40000101300441060807200EAA160117141DE0
:100D5000031E202104224023202451250826062793
:100D6000402A402D8131083765384039083C113E12
:100D7000043F80450A47204D204E024F08566A57CF
:100D8000C065046C046D016E866F15748075807685
:100D900001C0F0C2F0C4E0CA98CCF2CEFAD0E0D2E2
:100DA00030D84001023000110202044D052007D066
:100DB000080209550A340BAA0C0D0D0E0E40100244
:100DC000120D162019941A401B691C4D1D331FC4A7
:100DD000204D24022638284D300F323033F0344075
:100DE000370F39803A023B083E10544058045904EA
:100DF0005B045F0180018801A801B601BE40D409EF
:100E0000D804DB04DF0101032D00100340041807A0
:100E1000410C800D200E500F0813201509171018D3
:100E2000011E501F10254C310C37603C103D885876
:100E30002059095A806001666067208520901891CA
:100E400009928099099A209B719D24A080A210A3E9
:100E500084A908AA02C0FAC2F0C472CC30CE70D6FF
:100E60000FD878010404B908BF04D904DF010105D3
:100E7000082720AA10AD20AE40B210B420B780EAF7
:100E800080010701AB20014108030857015B24875B
:100E900008C040D480D660E4400142049F04AB20E7
:100EA000B301EA80014302AB04EA80015003000170
:100EB00002140801043200C056920904602100D2D5
:100EC0000704380004928004010400920AFA100515
:100ED0008407006800960000800004008400000081
:100EE0008496000080077F1D000000E00800008855
:100EF0000000010032054000060DFCEB3DFFFFFF46
:100F00002200F00804000000000002280404040489
:100F1000000000010000C00040011011C0010011DC
:100F2000400140010000000000000000000000003F
:100F3000000000006000046363002300000000085C
:0D0F40000800000000000100800EB40080D9
:00000001FF
