:1000000002229D008F828E83E0540100000070F870
:100010002278FFE4F6D8FD0222FBBB010689828A22
:1000200083E0225002E722BBFE02E32289828A8318
:10003000E49322BB010989828A83F8E028F02250E8
:100040000327F722BBFE05F8E328F3228A8389827F
:10005000F8E4932822BB010689828A83F0225002A9
:10006000F722BBFE01F322EF8DF0A4A8F0CF8CF0B5
:10007000A428CE8DF0A42EFE22BC000BBE0029EFDA
:100080008DF084FFADF022E4CCF875F008EF2FFF7F
:10009000EE33FEEC33FCEE9DEC984005FCEE9DFE4D
:1000A0000FD5F0E9E4CEFD22EDF8F5F0EE8420D294
:1000B0001CFEADF075F008EF2FFFED33FD40079803
:1000C0005006D5F0F222C398FD0FD5F0EA22C5F014
:1000D000F8A3E028F0C5F0F8E582158270021583D8
:1000E000E038F022BB010A89828A83E0F5F0A3E0C0
:1000F00022500687F009E71922BBFE07E3F5F00955
:10010000E3192289828A83E493F5F074019322BB78
:10011000010A89828A83F0E5F0A3F0225006F709EC
:10012000A7F01922BBFE06F3E5F009F31922EF2B25
:10013000FFEE3AFEED39FDEC38FC22E88FF0A4CC5E
:100140008BF0A42CFCE98EF0A42CFC8AF0EDA42CFE
:10015000FCEA8EF0A4CDA8F08BF0A42DCC3825F0CD
:10016000FDE98FF0A42CCD35F0FCEB8EF0A4FEA9B8
:10017000F0EB8FF0A4CFC5F02ECD39FEE43CFCEAC5
:10018000A42DCE35F0FDE43CFC2275F0087582000C
:10019000EF2FFFEE33FECD33CDCC33CCC58233C54C
:1001A000829BED9AEC99E58298400CF582EE9BFEDD
:1001B000ED9AFDEC99FC0FD5F0D6E4CEFBE4CDFA38
:1001C000E4CCF9A88222B800C1B90059BA002DECDC
:1001D0008BF084CFCECDFCE5F0CBF97818EF2FFF74
:1001E000EE33FEED33FDEC33FCEB33FB10D703991C
:1001F0004004EB99FB0FD8E5E4F9FA227818EF2FC9
:10020000FFEE33FEED33FDEC33FCC933C910D705E7
:100210009BE99A4007EC9BFCE99AF90FD8E0E4C906
:10022000FAE4CCFB2275F010EF2FFFEE33FEED3336
:10023000FDCC33CCC833C810D7079BEC9AE8994063
:100240000AED9BFDEC9AFCE899F80FD5F0DAE4CDC5
:10025000FBE4CCFAE4C8F922EF4BFFEE4AFEED498D
:10026000FDEC48FC22EB9FF5F0EA9E42F0E99D424E
:10027000F0E89C45F022E8600FECC313FCED13FDA1
:10028000EE13FEEF13FFD8F122E8600FEFC333FF48
:10029000EE33FEED33FDEC33FCD8F122E0FCA3E0BD
:1002A000FDA3E0FEA3E0FF22E0F8A3E0F9A3E0FA5B
:1002B000A3E0FB22ECF0A3EDF0A3EEF0A3EFF0221D
:1002C000E0FBA3E0FAA3E0F922F8E0FBA3A3E0F946
:1002D00025F0F0E582158270021583E0FA38F022ED
:1002E000F8E0FBA3A3E025F0F9F0E58215827002A7
:1002F0001583E038FAF022EBF0A3EAF0A3E9F0224C
:10030000E493FB740193FA740293F922D083D082B0
:10031000F8E4937012740193700DA3A393F8740121
:1003200093F5828883E4737402936860EFA3A3A3B8
:1003300080DFE51A2582F582E5193583F583B51945
:100340000485821A2210AF0685821AF51922858249
:100350001AF519D2AF22EC8EF0A4CCC5F0CCCDF8B2
:10036000EFA4CEC5F02DFDE43CFCE8A42EC8C5F0FA
:100370003DFDE43CFCEFA4FFE5F028FEE43DFDE498
:100380003CFC22EF4E6012EF60010EEDBB010B89C9
:10039000828A83F0A3DFFCDEFA2289F05007F70996
:1003A000DFFCA9F022BBFEFCF309DFFCA9F022E38D
:1003B000F5F009E208B5F06BDFF58067E3F5F009C9
:1003C000E608B5F05EDFF5805A87F009E608B5F07B
:1003D00052DFF6804E87F009E208B5F046DFF6807E
:1003E0004288828C8387F009E0A3B5F036DFF6807F
:1003F0003288828C8387F009E493A3B5F025DFF57A
:10040000802188828C83E3F5F009E0A3B5F014DF46
:10041000F5801088828C83E3F5F009E493A3B5F0AE
:1004200002DFF40204CA808780E9809080D480349F
:10043000801580648074809D80B7808D80A3804704
:10044000806A80320204D688848C8589828A83E41B
:1004500093F5F0A30586E493A30586B5F06CDFEF72
:10046000DEED806689828A83E493F5F0A3E208B525
:10047000F058DFF4805489828A83E0F5F0A3E6081F
:10048000B5F047DFF5804389828A83E0F5F0A3E287
:1004900008B5F036DFF5803289828A83E493F5F07F
:1004A000A3E608B5F024DFF480208002804388842E
:1004B0008C8589828A83E493F5F0A30586E0A30501
:1004C00086B5F006DFF0DEEE80007FFFB5F0020FAC
:1004D0002240027F012288848C8589828A83E0F50C
:1004E000F0A30586E0A30586B5F0DFDFF1DEEF803F
:1004F000D988848C8589828A83E0F5F0A30586E417
:1005000093A30586B5F0C3DFF0DEEE80BD88F0EF83
:1005100060010E4E60BFED2402B4040050ACF582C1
:10052000EB2402B4040050A2232345822390042626
:1005300073E709F608DFFA8046E709F208DFFA8078
:100540003E88828C83E709F0A3DFFA8032E309F664
:1005500008DFFA806EE309F208DFFA806688828C91
:1005600083E309F0A3DFFA805A89828A83E0A3F645
:1005700008DFFA804E89828A83E0A3F208DFFA80DE
:100580004280D280FA80C680D4805580F280298053
:100590001080A680EA809A80A880DA80E280CA80F3
:1005A0002988848C8589828A83E493A30586F0A3B5
:1005B0000586DFF5DEF3800B89828A83E493A3F658
:1005C00008DFF9ECFAA9F0EDFB2288848C8589829A
:1005D0008A83E0A30586F0A30586DFF6DEF480E3D8
:1005E00089828A83E493A3F208DFF980D688F0EF4A
:1005F00060010E4E60CD88F0ED2402B4040050C3BB
:10060000F582EB2402B4040050B9232345822390E1
:10061000058173BB010CE58229F582E5833AF583F8
:10062000E0225006E92582F8E622BBFE06E9258293
:10063000F8E222E58229F582E5833AF583E4932204
:100640009003F31202F79003F6ECF0A3EDF09003A1
:10065000FFE4F09003F31202C0E92432F9EA340017
:10066000FAE475F00012010F9003F31202C0E924BE
:1006700018F9EA3400FAE475F00012010F9003F360
:100680001202C0E92406F9EA3400FAC003C002C02D
:10069000019003F31202C0A801AC02AD03D001D057
:1006A00002D0037E007F061205ED7B017A0379D329
:1006B000C003C002C0019003F31202C0E92406F98E
:1006C000EA3400FAA801AC02AD03D001D002D00395
:1006D0007E007F061205ED9003F31202C0E9241A92
:1006E000F9EA3400FAC003C002C0019003F3120219
:1006F000C0E9241EF9EA3400FAA801AC02AD03D027
:1007000001D002D0037E007F041205ED7B017A0345
:1007100079C3C003C002C0019003F31202C0E924F0
:100720001AF9EA3400FAA801AC02AD03D001D002F4
:10073000D0037E007F041205ED9003F31202C0E99E
:100740002424F9EA3400FA1200E4FFAEF09003FD2D
:10075000EEF0A3EFF09003F31202C0E92422F9EACD
:100760003400FA1200E4FFAEF09003F31202C0E985
:100770002424F9EA3400FAEE8FF012010F9003FD01
:10078000E0FEA3E0FF9003F31202C0E92422F9EA9D
:100790003400FAEE8FF012010F9003F31202C0E959
:1007A000242AF9EA3400FAC003C002C0017B017AAE
:1007B0000379F9A801AC02AD03D001D002D0037EC9
:1007C000007F041205ED9003F31202C0E92426F91C
:1007D000EA3400FAC003C002C0019003F31202C061
:1007E000E9242AF9EA3400FAA801AC02AD03D001E9
:1007F000D002D0037E007F041205ED7B017A0379DD
:10080000F9C003C002C0019003F31202C0E924261C
:10081000F9EA3400FAA801AC02AD03D001D002D04D
:10082000037E007F041205ED9003F31202C0E92459
:100830002FF9EA3400FA12001AFFEFC313FFEF207A
:10084000E0169003F31202C0E9242FF9EA3400FA0B
:1008500012001AFFEF30E0179003F31202C0E924F0
:100860002AF9EA3400FA7D017C00121F2F802190C2
:1008700003F31202C0E9242AF9EA3400FA9003F6DD
:10088000E0FEA3E0FFEF24CAFDEE34FFFC121F2FB1
:100890009003F8E0FFEF700302093C9003F8E0FFDB
:1008A000EF5401FFEF25E0FF9003F31202C0E924AB
:1008B0002FF9EA3400FA12001AFEEE54FDFEEE4F54
:1008C000FFEF1200559003F31202C0E92434F9EA55
:1008D0003400FA9004001202F7900400E475F0016D
:1008E0001202C97402120055900400E475F001125E
:1008F00002C97404120055900400E475F00112025C
:10090000C97405120055900400E475F0011202C983
:1009100074801200559003F31202C0E9242EF9EA04
:100920003400FA12001AFFEF540FFFEF4460FFEF9C
:100930001200559003FFE02404F0801E9003F31290
:1009400002C0E9242EF9EA3400FA12001AFFEF542B
:100950000FFFEF4450FFEF1200559003F31202C057
:10096000E9242FF9EA3400FA12001AFFEF4410FFCD
:10097000EF1200559003F31202C0E9242FF9EA3474
:1009800000FA12001AFFEF54F7FFEF120055900320
:10099000F31202C0E9242FF9EA3400FA12001AFF18
:1009A000EF54FEFFEF1200559003FFE0FFEF2436F7
:1009B000FF7E009003F6EEF0A3EFF09003F6E0FE6A
:1009C000A3E0FFEF24F2FFEE34FFFE9003F31202E8
:1009D000C0E92410F9EA3400FAEE8FF012010F900A
:1009E00003F31202C0E9240EF9EA3400FA90044A33
:1009F000E4F07D147C001210039003F31202C0E9AE
:100A00002418F9EA3400FAEE8FF012010F9003F384
:100A10001202C0E9241AF9EA3400FA9003FFE0FF59
:100A2000EF241CFFEFFD7C0090044A7402F01210CA
:100A3000039003F31202C0E92432F9EA3400FAEE1B
:100A40008FF012010F9003F6E0FEA3E0FF22E51401
:100A5000249EF582E43403F583E005142290039B81
:100A600030070390039EE475F0011202C902001AD8
:100A70002000E97F2ED2008018EF540F2490D43448
:100A800040D4FF30040BEF24BFB41A00500324619C
:100A9000FFE515600215150518E5187002051730F9
:100AA000070E90039BE475F0011202C9EF02005596
:100AB000022E3F7403D2078003E4C207F5149003AB
:100AC0009B1202F7E4F515F517F518E51560077F99
:100AD00020120A9180F57516FFC201C200C202C23F
:100AE00003C205C206C208120A5DFF700D30070579
:100AF0007F00120AA2AF18AE1722B4255FC2D5C27A
:100B000004120A5DFF24D0B40A00501A75F00A7866
:100B10001530D50508B6FF0106C6A426F620D50473
:100B20007002D20380D924CFB41A00EF5004C2E57A
:100B3000D204020CA3D20180C6D20080C0D20280AF
:100B4000BCD2D580BAD20580B47F20120A9120028F
:100B5000077401B5150040F1120A4EFF120A910206
:100B60000ACBD208D2068095120A4EFB120A4EFA20
:100B7000120A4EF94A4B700679747A0D7BFF2002F7
:100B80002EE515602A7E008E8275830012061360A2
:100B9000060EEE651670F0C2D5EBC0E0EAC0E0E9E3
:100BA000C0E0EE120CEAD0E0F9D0E0FAD0E0FB129F
:100BB000001AFF60AAEBC0E0EAC0E0E9C0E0120A58
:100BC00091D0E02401F9D0E03400FAD0E0FBE51642
:100BD0000460DCD516D980877BFF7A0C79E6D202D7
:100BE000809C791080027908C206C2088008D2D59C
:100BF000790A8004790AC2D5E516047002F516E474
:100C0000FAFDFEFF120A4EFC7B08200113120A4E69
:100C1000FD7B1030000A120A4EFE120A4EFF7B20A6
:100C2000EC3382D592D55013C3E43000069FFFE425
:100C30009EFEE42001039DFDE49CFCE4CBF8C20190
:100C4000EC700CCFCECDCCE824F8F870F38017C34D
:100C5000EF33FFEE33FEED33FDEC33FCEB33FB996A
:100C60004002FB0FD8E9EB300105F8D0E0C448B2F0
:100C700001C0E00AEC4D4E4F78207B0070C2EAB50F
:100C8000160040BCC0E0120CECD0F0D0E020010413
:100C9000C4C0E0C4B201C0F0120A7AD0F0D5F0EBC3
:100CA000020ACB12030C0B68530BE2580B394C0BA6
:100CB00035420BE64F0BEE440BEE490B4E430BF463
:100CC000550BD8460BD8450BD8470D94500B3D2DEE
:100CD0000B412E0B642B0B45230B62200D7D2A0A42
:100CE000FD4800000B5C3F3F3F00790AA2D520037E
:100CF00014300509B910020404B9080104A2D52072
:100D000006025001042002689202B515005034C05A
:100D1000E07F203003197F30A20272067205500F67
:100D2000120D43C202C206C205C2087F30800F30D6
:100D30000503E9C0E0120A91300503D0E0F9D0E0E4
:100D4000B515CC3005177F30B9100C120A917F58B9
:100D50003004077F788003B90803120A9130020536
:100D60007F2D020A917F202008F87F2B2006F32296
:100D7000920280CF286E756C6C2900D201120A4E47
:100D80003001F8C201781530D50108F6020AFD2DB0
:100D900050434958120A4E2403B405004001E49020
:100DA0000D8F93120A82743A120A82D203751504C7
:100DB000020BE290030D1202F790030D1202C09095
:100DC000033C1202F77B017A037912122B927B010A
:100DD0007A037914C003C002C0017BFF7A25797CB5
:100DE00090039E1202F7900312E0FEA3E0FF90032F
:100DF000A1EEF0A3EFF0D001D002D003120AB37B32
:100E0000FF7A2579A2C003C002C00190030D12022F
:100E1000C0E92436F9EA3400FA90039E1202F790F2
:100E200003A1E4F0A37404F0D001D002D003122493
:100E3000F5EF602D90030D1202C0C003C002C00187
:100E40007BFF7A2579A79004931202F7D001D00294
:100E5000D0037D007C00122791900310EEF0A3EFE9
:100E6000F07BFF7A2579D4C003C002C00190030D46
:100E70001202C0E9243AF9EA3400FA90039E120201
:100E8000F79003A1E4F0A37402F0D001D002D003E4
:100E90001224F5EF6003020F5990030D1202C0C037
:100EA00003C002C0017BFF7A2579A7900493120248
:100EB000F7D001D002D0037D007C0012279190036F
:100EC00010EEF0A3EFF090030D1202C0C003C002B9
:100ED000C001900310E0FCA3E0FD7BFF7A2579D7E9
:100EE0009004931202F7D001D002D0031227919000
:100EF0000310EEF0A3EFF090030D1202C0C003C088
:100F000002C001900310E0FCA3E0FD7BFF7A25798D
:100F1000EF9004931202F7D001D002D00312279170
:100F2000900310EEF0A3EFF090030D1202C0C00387
:100F3000C002C001900310E0FCA3E0FD7B017A0336
:100F400079149004931202F7D001D002D003122733
:100F500091900310EEF0A3EFF090030D1202C090F9
:100F60000310E0FCA3E0FD12184A90030D1202C02A
:100F70007F067E0012205690033C1202C0E9242412
:100F8000F9EA3400FA1200E4FFAEF09003C9E0FC85
:100F9000A3E0FDEFB505D3EEB504CF90033C1202FC
:100FA000C0E9242FF9EA3400FA12001AFFEF30E00A
:100FB000B990033C1202C0C003C002C00190033CC0
:100FC0001202C0E92410F9EA3400FA1200E4FFAE7C
:100FD000F0EF240EFDEE3400FC9003F8E4F0D001B5
:100FE000D002D003120640900310EEF0A3EFF09071
:100FF000030D1202C0900310E0FCA3E0FD121DF0EF
:101000007E00229004451202F7900448ECF0A3ED14
:10101000F07F007E007D007C0090044B1202B490B3
:10102000044AE0FFEFB4013E90044B12029CEF240F
:1010300011FFEE3400FEED3400FDEC3400FC9004B2
:101040004B1202B490044B1202A8900448E0FEA395
:10105000E0FFEF24F8FFEE34FFFEE4FCFD12012E6A
:1010600090044B1202B490044AE0FFEFB4023E90A9
:10107000044B12029CEF2406FFEE3400FEED340018
:10108000FDEC3400FC90044B1202B490044B1202AD
:10109000A8900448E0FEA3E0FFEF24F8FFEE34FF41
:1010A000FEE4FCFD12012E90044B1202B4900448A1
:1010B000E0FEA3E0FFD3EF9401EE94005003021191
:1010C0004C90044B12029CC004C005C006C007909F
:1010D00004451202C0E92401F9EA3400FA12001AA8
:1010E000FFE4FCFDFEC004C005C006C00790044537
:1010F0001202C012001AFFE4FCFDFE7808120289F9
:10110000A804A905AA06AB07D007D006D005D004CD
:10111000120258EF54FFFBEE54FFFAED5400F9ECC5
:101120005400F8D007D006D005D00412012E900448
:101130004B1202B4900446E475F0021200CE900403
:101140004874FF75F0FE1200CE0210AD900448E026
:10115000FEA3E0FFEF4E603E90044B12029CC004E1
:10116000C005C006C0079004451202C012001AFF55
:10117000EF54FFFFE4FCFDFE7808120289A804A9E1
:1011800005AA06AB07D007D006D005D00412012E61
:1011900090044B1202B490044B12029C781012027D
:1011A00076EC4D4E4F604490044B12029CEF54FF7E
:1011B000FFEE54FFFEED5400FDEC5400FCC004C0F3
:1011C00005C006C00790044B12029C7810120276EC
:1011D000A804A905AA06AB07D007D006D005D004FD
:1011E00012012E90044B1202B480AB90044B1202F9
:1011F0009CEF64FFFFEE64FFFEED6400FDEC640015
:10120000FC229004F61202F79004F9ECF0A3EDF042
:101210009004F61202C0E92422F9EA3400FA12001E
:101220001AFFEF6408600302139E9004F61202C0D6
:10123000E92422F9EA3400FAE41200559004F61287
:1012400002C0E92424F9EA3400FAE475F00012013E
:101250000F9004F61202C0E92418F9EA3400FAE407
:1012600075F00012010F9004F61202C0E92406F98D
:10127000EA3400FAC003C002C0019004F61202C0B2
:10128000A801AC02AD03D001D002D0037E007F06DE
:101290001205ED7B017A0379D3C003C002C001902F
:1012A00004F61202C0E92406F9EA3400FAA801ACF7
:1012B00002AD03D001D002D0037E007F061205EDFF
:1012C0009004F61202C0E9241AF9EA3400FAC003C5
:1012D000C002C0019004F61202C0E9241EF9EA34EB
:1012E00000FAA801AC02AD03D001D002D0037E0009
:1012F0007F041205ED7B017A0379C3C003C002C0ED
:10130000019004F61202C0E9241AF9EA3400FAA89E
:1013100001AC02AD03D001D002D0037E007F0412E5
:1013200005ED9004F61202C0E92422F9EA3400FA2D
:101330009004F9E0FEA3E0FFEF24DEFDEE34FFFCB5
:1013400090044AE4F01210039004F61202C0E9245B
:1013500024F9EA3400FAEE8FF012010F9004F6122D
:1013600002C0E9240EF9EA3400FA90044AE4F07D60
:10137000147C001210039004F61202C0E92418F93C
:10138000EA3400FAEE8FF012010F9004F61202C058
:101390009004F9E0FCA3E0FD121DF07E00227E0027
:1013A0007F01227E047FC09004C4EEF0A3EFF07BA7
:1013B000007A4079807F017E007D187C00122F75B5
:1013C0009043007402F09040007408F07B007A4271
:1013D00079127D167C33122FAA9042107401F0907E
:1013E0004210E0FF7FC87E327D007C009004C01276
:1013F00002B49004C4E0FEA3E0FF8F828E83120249
:101400009CEC4D4E4F6033904210E0FFEF5480FF54
:101410007E00EF4E60247FE07E017D007C00122C78
:10142000009004C012029C7BFF7AFF79FF78FF12C4
:10143000012E9004C01202B480B89004C4E0FEA350
:10144000E0FF8F828E8312029C7B007A0079007805
:1014500000C312026570057F01122F877B007A425C
:1014600079227D277C0D122FAA9040007409F07B11
:10147000007A4279207D517C10122FAA9004C6E494
:10148000F07F197E007D007C009004C01202B490B1
:1014900004C4E0FEA3E0FF8F828E8312029CEC4D19
:1014A0004E4F604E9004C6E0FFEF640360449042EC
:1014B00025E0FFEF5401FF7E009004C6E0FEEE251C
:1014C000E0FEEE4FFFEF5403FF9004C6EFF07FE025
:1014D0007E017D007C00122C009004C012029C7BD7
:1014E000FF7AFF79FF78FF12012E9004C01202B438
:1014F000809D7B007A4079047D007C01122FAA90A8
:1015000040007449F09042007420F0904004740749
:10151000F0904006E4F09040087448F0904004E4F5
:10152000F09040017402F09043A2E0FFEF4401FF0D
:10153000EFF02290480074C0F01213A3904394E09F
:10154000FFEF54FDFFEFF07B007A4679E8122FC5DC
:10155000EF4405FD7B007A4679E8122FD175130020
:10156000E513C39409503AAF13EF75F005A424E1D5
:10157000F582E4342FF583AF82AE838E088F09AEF7
:1015800008AF098F828E83120300AE08AF098F82E5
:101590008E83740393FC740493FD122EC50513808F
:1015A000BF751300E513C394015064AF13EF75F0DA
:1015B00007A42436F582E43432F583AF82AE838EFD
:1015C0000A8F0BAE0AAF0B8F828E831203008B0C37
:1015D0008A0D890EAE0AAF0B8F828E83740393FE41
:1015E000740493FF8E0F8F10AE0AAF0B8F828E8321
:1015F000740593F511740693F512AB0CAA0DA90EA0
:10160000AD10AC0FAF12AE11122E66051380957E91
:10161000307F0E122D3D7B017A507903122FC5EFDA
:101620004402FD7B017A507903122FD17B017A505D
:101630007913122FC5EF4402FD7B017A5079131202
:101640002FD19043A0E0FFEF4440FF9043A0EFF084
:101650009043C2E0FFEF4410FF9043C2EFF07C32B2
:101660007D2C7B007A5179007F0A7E00122E6690D5
:101670004689743AF07B017A5079077D40122FD168
:101680007B017A5079177D40122FD1122BCA7B0033
:101690007A4379A0C003C002C0017B007A4379B0CD
:1016A0009003A01202F7D001D002D0037F0E7E007B
:1016B000122C4B9043B0E0FFEF54FDFF9043B0EF8E
:1016C000F0229005501202F77B017A0379C3C00320
:1016D000C002C0019005501202C0E92426F9EA3484
:1016E00000FAA801AC02AD03D001D002D0037E0005
:1016F0007F0412050DEF600302184090055012029E
:10170000C0E92406F9EA3400FAC003C002C001901F
:1017100005501202C0A801AC02AD03D001D002D026
:10172000037E007F061205ED7B017A0379D3C003A7
:10173000C002C0019005501202C0E92406F9EA3443
:1017400000FAA801AC02AD03D001D002D0037E00A4
:101750007F061205ED9005501202C0E92416F9EA41
:101760003400FAC003C002C0019005501202C0E963
:101770002420F9EA3400FAA801AC02AD03D001D06C
:1017800002D0037E007F061205ED7B017A0379D338
:10179000C003C002C0019005501202C0E92416F92E
:1017A000EA3400FAA801AC02AD03D001D002D003A4
:1017B0007E007F061205ED9005501202C0E9241C40
:1017C000F9EA3400FAC003C002C0019005501202C9
:1017D000C0E92426F9EA3400FAA801AC02AD03D02E
:1017E00001D002D0037E007F041205ED7B017A0355
:1017F00079C3C003C002C0019005501202C0E924A1
:101800001CF9EA3400FAA801AC02AD03D001D00201
:10181000D0037E007F041205ED9005501202C0E94E
:101820002414F9EA3400FAE475F00212010F90056D
:10183000501202C07D2A7C00121DF07E002280051D
:101840007E007F01227E007F01229004AB1202F70E
:101850009004AEECF0A3EDF09004AB1202C0C00314
:10186000C002C0019004AB1202C0E92410F9EA34AE
:1018700000FA1200E4FFAEF0EF240EFDEE3400FC9F
:101880009003F8E4F0D001D002D003120640900497
:10189000B0EEF0A3EFF09004AB1202C09004B0E001
:1018A000FCA3E0FD121DF09004AB1202C0E9242F4E
:1018B000F9EA3400FA12001AFFEF4410FFEF1200A9
:1018C000559004AB1202C0E9242FF9EA3400FA1251
:1018D000001AFFEF4408FFEF1200559004AB12020C
:1018E000C0E9242FF9EA3400FA12001AFFEF44018C
:1018F000FFEF1200559004AEE0FEA3E0FFEF2428B6
:10190000FFEE3400FE9004AB1202C0E92410F9EAA5
:101910003400FAEE8FF012010F9004AB1202C0E90E
:101920002418F9EA3400FAE475F00012010F90046B
:10193000AB1202C0E9240EF9EA3400FA90044AE43A
:10194000F07D147C001210039004AB1202C0E92455
:1019500018F9EA3400FAEE8FF012010F9004AB127E
:1019600002C0E92432F9EA3400FAE475F000120109
:101970000F9004AB1202C0E9241AF9EA3400FA907D
:1019800004AEE0FEA3E0FFEF241CFDEE3400FC906B
:10199000044A7402F01210039004AB1202C0E9244E
:1019A00032F9EA3400FAEE8FF012010F9004AB1214
:1019B00002C09004AEE0FEA3E0FFEF2436FDEE345B
:1019C00000FC121DF07E007F01229004A41202F799
:1019D0009004A7ECF0A3EDF07F01122B137F1912F6
:1019E0002CB0EF7006E47E007F00227F00122B13E4
:1019F000900403E0FEA3E0FFEF54FFFD7F001229F7
:101A000047900403E0FEA3E0FF7F00EEFF7E00AD01
:101A1000077F011229477B017A0479057D067C0046
:101A2000122994900405E0FEA3E0FFEF7D00FC90F6
:101A30000405E0FEA3E0FFEEFF7E00EE4CFEEF4D5E
:101A4000FF900403EEF0A3EFF0900407E0FEA3E0A4
:101A5000FFEF7D00FC900407E0FEA3E0FFEEFF7EB9
:101A600000EE4CFEEF4DFFEF24FCFFEE34FFFE9046
:101A700004A9EEF0A3EFF09004A7E0FEA3E0FFEFCF
:101A800024FFFFEE34FFFE9004A9E0FCA3E0FDD3A9
:101A9000ED9FEC9E40109004A7E0FEA3E0FF9004B1
:101AA000A9EEF0A3EFF0900409E0FFEF30E711900A
:101AB00004A41202C09004A9E0FCA3E0FD12299442
:101AC0007F00122B13900403E0FEA3E0FFEF24FF3E
:101AD000FFEE34FFFEC3EE94004019900403E0FED5
:101AE000A3E0FFEF24FFFFEE34FFFED3EF94FFEE01
:101AF000940F40107DFF7F0C1229477D0F7F0D1240
:101B000029478031900403E0FEA3E0FFEF14FFEFCC
:101B100054FFFD7F0C122947900403E0FEA3E0FF71
:101B2000EF24FFFFEE34FFFE7F00EEFF7E00AD07E7
:101B30007F0D1229477D407F1E122A2E9004A9E0B6
:101B4000FEA3E0FF227B017A017970900208120265
:101B5000F79002081202C07F067E00122056900203
:101B6000081202C0E92424F9EA3400FA1200E4FF62
:101B7000AEF09003C9E0FCA3E0FDEFB505D3EEB5F0
:101B800004CF9002081202C0E9242FF9EA3400FAC7
:101B900012001AFFEFC313FFEF30E0B590020812F6
:101BA00002C0C003C002C0019002081202C0E924B2
:101BB00010F9EA3400FA1200E4FFAEF0EF240EFD53
:101BC000EE3400FC9003F87401F0D001D002D00391
:101BD000120640900206EEF0A3EFF07B017A017945
:101BE00070900206E0FCA3E0FD121DF090020812C6
:101BF00002C07F067E001220569002081202C0E941
:101C00002424F9EA3400FA1200E4FFAEF09003C98C
:101C1000E0FCA3E0FDEFB505D3EEB504CF900208DC
:101C20001202C0E9242FF9EA3400FA12001AFFEF79
:101C3000C4540FFFEF30E0B49002081202C07F06D8
:101C40007E001220569002081202C0E92424F9EA0C
:101C50003400FA1200E4FFAEF09003C9E0FCA3E008
:101C6000FDEFB505D3EEB504CF9002081202C0E92E
:101C7000242FF9EA3400FA12001AFFEFC4540FFFC0
:101C8000EF30E0B49002081202C0E9242FF9EA34E0
:101C900000FA12001AFFEF131313541FFFEF30E086
:101CA000979002081202C02290054A1202F7122FE2
:101CB000DD122DEF7F00122B137D007F08122947C4
:101CC0007D007F091229477DFF7F0A1229477D0F7A
:101CD0007F0B1229477D007F0C1229477D007F0D65
:101CE0001229477D007F041229477D107F051229A4
:101CF000477F01122B137DB07F181229477D3F7F4C
:101D0000081229477D307F091229477D397F10123B
:101D100029477DF77F111229477F02122B137D017E
:101D20007F00122A2E7D327F021229477DEE7F0A24
:101D30001229477D057F0B1229477D127F04122946
:101D4000477D127F061229477D0C7F071229477FA6
:101D500003122B1390054A1202C012001AFD7F04D1
:101D600012294790054A1202C0E92401F9EA340019
:101D7000FA12001AFD7F0512294790054A1202C087
:101D8000E92402F9EA3400FA12001AFD7F0212294E
:101D90004790054A1202C0E92403F9EA3400FA1216
:101DA000001AFD7F0312294790054A1202C0E92458
:101DB00004F9EA3400FA12001AFD7F001229479054
:101DC000054A1202C0E92405F9EA3400FA12001AA1
:101DD000FD7F011229477D007C007F001228F87DDD
:101DE000007C017F101228F87D047F1F12294722F2
:101DF0009004C71202F79004CAECF0A3EDF090042F
:101E0000CCE4F07F00122B137D007F041229477D64
:101E1000107F051229477D007F021229477D107F20
:101E2000031229477B017A0479CC7D017C001229B9
:101E3000E19004C71202C09004CAE0FCA3E0FD12C6
:101E400029E19004CAE0FEA3E0FFEF04FFEF54FF96
:101E5000FD7F061229479004CAE0FEA3E0FFEF24AD
:101E600001FFEE3410FE7F00EEFF7E00AD077F071E
:101E70001229477D087F1C122A7B7D887F1B122A2E
:101E80002E7D807F1F122A2E7D807F1F122A7B7D50
:101E90000A7F1C122A7B7D087F1F122A2E7F1C12AC
:101EA0002CB0EF30E3F77D087F1F122A7B7F0012F2
:101EB0002B139004CAE475F0011200CE9004CAE01E
:101EC000FEA3E0FFEF54FFFD7F001229479004CAF4
:101ED000E0FEA3E0FF7F00EEFF7E00AD077F011272
:101EE00029477B017A04790B7D077C001229947FB6
:101EF0001D122CB0EF30E13190040EE0FFEF30E521
:101F0000157D087F1F122A7B7D087F1F122A2E7DD8
:101F1000127F1D122A7B7D0A7F1C122A7B7D027F85
:101F20001D122A7B7F012280037F00227F002290E6
:101F300004F11202F79004F4ECF0A3EDF09004F435
:101F4000E0FEA3E0FFEF54FFFF9004F11202C0E9AE
:101F50002403F9EA3400FAEF1200339004F4E0FEAF
:101F6000A3E0FFEEFF7E009004F11202C0E924021C
:101F7000F9EA3400FAEF1200339004F11202C0E9DA
:101F80002402F9EA3400FA12001AFFEFFD7C0090F7
:101F900004F4E0FEA3E0FFEEFF7E00C3ED9FEC9EA5
:101FA00050339004F11202C0E92401F9EA3400FA36
:101FB00074011200339004F11202C0E92401F9EA1D
:101FC0003400FA12001AFFEF700B9004F11202C0F5
:101FD00074011200339004F11202C0E92403F9EAFB
:101FE0003400FA12001AFF7E009004F4E0FCA3E033
:101FF000FD7C00C3EF9DEE9C505B9004F11202C08B
:10200000E92402F9EA3400FA74011200339004F171
:102010001202C0E92402F9EA3400FA12001AFFEFB2
:1020200070339004F11202C0E92401F9EA3400FA95
:1020300074011200339004F11202C0E92401F9EA9C
:102040003400FA12001AFFEF700B9004F11202C074
:102050007401120033229003E3EEF0A3EFF090033B
:10206000E51202F79003E51202C07D967C0012197A
:10207000CA9003E8EEF0FEA3EFF0FFEF4E7003020C
:1020800021799003E51202C09003EA1202F790034F
:10209000EA1202C0E9240CF9EA3400FA1200E4FF63
:1020A000AEF0EFB40639EEB408359003E51202C085
:1020B0009003ED1202F79003ED1202C0E92414F927
:1020C000EA3400FA1200E4FFAEF0EF64014E600360
:1020D0000221799003ED1202C01216C202217990FA
:1020E00003EA1202C0E9240CF9EA3400FA1200E40F
:1020F000FFAEF0EF64007003EE6408707C9003E5BF
:102100001202C09003ED1202F79003ED1202C0E933
:102110002417F9EA3400FA12001AFFEFB4013390E1
:1021200003E51202C09003F01202F79003F01202CE
:10213000C0E92422F9EA3400FA12001AFFEFB408C9
:10214000119003E51202C09003E8E0FCA3E0FD1249
:1021500012029003ED1202C0E92417F9EA3400FAE2
:1021600012001AFF7E009003E3E0FCA3E0FDEFB550
:102170000507EEB504037F01227F00229002DB12E7
:1021800002F79002E1E4F0A3E4F09002DB1202C057
:10219000C003C002C0017B017A0379D3A801AC025D
:1021A000AD03D001D002D0037E007F061205ED9072
:1021B00002DE1202C0C003C002C0017B017A0379B3
:1021C000C3A801AC02AD03D001D002D0037E007FD2
:1021D000041205ED7B017A0379D3121CA87B017AE6
:1021E0000379CF1223879002E1E4F0A3E4F0900298
:1021F000E1E0FEA3E0FFC3EF94FFEE945F40030233
:1022000022987B017A0279E37D2A7C001219CAEFB9
:102210004E60739002EFE0FEA3E0FFEF64067003F0
:10222000EE640870619002F7E0FEA3E0FFEF640245
:102230004E70537B017A0379CFC003C002C0017B8B
:10224000017A0279FFA801AC02AD03D001D002D01F
:10225000037E007F0412050DEF702B7B017A02795B
:10226000F9C003C002C0017B017A0379DDA801AC8B
:1022700002AD03D001D002D0037E007F061205ED2F
:10228000E47E007F00227E007F01229002E1E4755F
:10229000F0011200CE0221EE7E007F012275930034
:1022A00078007583467582E8E04401F0009046ECC2
:1022B000E0F99046FAE0FAB903225420B40012B8CB
:1022C000001AEA901FFFF07401901FFEF09046F68E
:1022D000F0901FFEE06005901FFFE0FA9048007448
:1022E000C0F075812190000078007920E4F0A3D837
:1022F000FCD9FAEA90041BF002001175191F751A37
:10230000FD121533022342022DC5E493A3F8E49392
:10231000A34003F68001F208DFF48029E493A3F8D8
:102320005407240CC8C333C4540F4420C88340044A
:10233000F456800146F6DFE4800B01020408102009
:102340004080902850E47E019360BCA3FF543F304E
:10235000E509541FFEE493A360010ECF54C025E0AD
:1023600060A840B8E493A3FAE493A3F8E493A3C865
:10237000C582C8CAC583CAF0A3C8C582C8CAC583F6
:10238000CADFE9DEE780BE90036E1202F77B017AB6
:102390000379D3C003C002C0017B017A037977A817
:1023A00001AC02AD03D001D002D0037E007F061243
:1023B00005ED7E007F067DFF7B017A0379711203B4
:1023C0008390037D7408F0A37406F090037FE4F01B
:1023D000A37401F09003817408F0A3E4F0900383E8
:1023E0007406F09003847404F0900385E4F0A37401
:1023F00001F07E007F067D007B017A037991120354
:10240000837B017A0379D3C003C002C0017B017AC8
:10241000037987A801AC02AD03D001D002D0037EBE
:10242000007F061205ED90036E1202C0C003C002C9
:10243000C0017B017A037997A801AC02AD03D001FA
:10244000D002D0037E007F041205ED7B017A037970
:10245000717D2A7C00121DF07E00229004CD1202B4
:10246000F7904722E0FFEF5402FF7E00EF4E706CC2
:10247000904722E0FFEF1313543FFFEF70567B01AC
:102480007A0479D07D0212272CEF6402703E90040A
:10249000D0E0FFEF60159004D1E0FF7E009004CD06
:1024A0001202C0EE8FF012010F801A9004D1E0FFEB
:1024B0007E00C3E49FFFE49EFE9004CD1202C0EEB6
:1024C0008FF012010F9004D2E4F080169004D274C1
:1024D000FFF0800E9004D27407F080069004D2744E
:1024E00010F09004D2E0FFEF64076003122EF69024
:1024F00004D2E0FF2290039BEBF0A3EAF0A3E9F003
:1025000090039EE0FBA3E0FAA3E0F912001AFE900C
:10251000039BE0FBA3E0FAA3E0F912001AFF6E7040
:102520002AEF600E9003A174FFF5F01200CE45F083
:1025300070037F002290039CE475F0011200CE909E
:10254000039FE475F0011200CE80B590039BE0FB81
:10255000A3E0FAA3E0F912001AFDD3EE6480F8EDCF
:1025600064809840037F012290039EE0FBA3E0FA81
:10257000A3E0F912001AFFC3ED9FFF223C68323E30
:1025800050536F432054656D706572617475726548
:102590002069732025642064656720433C2F6832DE
:1025A0003E004745542000485454502F312E3020CF
:1025B000323030204F4B0D0A436F6E74656E742DB0
:1025C000547970653A20746578742F68746D6C0D59
:1025D0000A0D0A002F20003C68313E454E43323838
:1025E0004A36302D50536F43333C2F68313E003C08
:1025F00068723E0090FFFC1203321202B47F007E2C
:10260000807D007C00851983851A821202A8D3126E
:102610000265403090041C12029C122C0085198324
:10262000851A82C083C08212029CC3EF9400FFEE21
:102630009480FEED9400FDEC9400FCD082D08312D7
:1026400002B480B990041212029C851983851A8203
:102650001202A812013B122C009000041203322235
:102660009004D31202F7122CDF9004D8EFF09004FC
:10267000D8E0FFEF640770499004D6E4F0A374013A
:10268000F09004D6E0FEA3E0FFD3EF9400EE9400B8
:10269000402F9004D31202C012245B9004D8EFF0B4
:1026A0009004D8E0FFEFB407187F017E007D007C26
:1026B000001225F49004D674FF75F0FF1200CE804E
:1026C000C09004D8E0FF229004961202F79004997B
:1026D000ECF0A3EDF0900499E0FEA3E0FFEF4E7064
:1026E00006E47E007F002290049BE4F0A3E4F090D7
:1026F0000499E0FEA3E0FF90049BE0FCA3E0FDC38F
:10270000ED9FEC9E501D900496E475F0011202C9F5
:1027100012001AFF122D9990049BE475F00112002B
:10272000CE80CC90049BE0FEA3E0FF2290050F1228
:1027300002F7900512EDF0900513E4F0900512E019
:10274000FF900513E0FEEEC39F5040904722E0FF4C
:10275000EF5401FF7E00EF4E6003D38001C34009B8
:102760007F017E00122D6C80E2904720E0FF9005F3
:102770000F1202C0900513E0FEE92EF9E43AFAEFD9
:10278000120055900513E004F080B1900513E0FFAE
:102790002290048E1202F7900491ECF0A3EDF090D9
:1027A00004931202C012001AFFEF604090049312CB
:1027B00002C012001AFF90048E1202C0E92436F9FA
:1027C000EA3400FA900491E0FCA3E0FDE92DF9EA77
:1027D0003CFAEF120055900491E475F0011200CE1E
:1027E000900494E475F0011200CE80B3900491E05F
:1027F000FEA3E0FF22900590EFF09005917407F0A2
:10280000904722E0FFEF5402FF7E00EF4E603590CC
:10281000472074B6F090472074E1F0904720740E82
:10282000F0904722E0FFEF5402FF7E00EF4E700C65
:10283000900590E0FF904720EFF0800E9005917496
:1028400009F080069005917404F0900591E0FF2254
:1028500046043F00A0C914C80044043BC0A8019925
:1028600042040300004403CFC0A801784403D9C048
:10287000A801014203C900504203C704B04105A6A4
:102880000044041703FC28B64404120001052A4141
:1028900004164344041C829500004105BE00430514
:1028A000190000000090049D1202F79004A0ECF0C3
:1028B000A3EDF09004A2E4F0A3E4F09004A0E0FE05
:1028C000A3E0FF9004A2E0FCA3E0FDC3ED9FEC9E1B
:1028D000501D122F9990049DE475F0011202C9EF6A
:1028E0001200559004A2E475F0011200CE80CC9045
:1028F00004A2E0FEA3E0FF2290054DEFF090054E0C
:10290000ECF0A3EDF090054DE0FFEFD394144003FD
:102910007F01227F02122B1390054DE0FD7F1412E0
:10292000294790054EE0FEA3E0FFAD077F16122970
:102930004790054EE0FEA3E0FFEEFF7E00AD077F6F
:10294000171229477F002290056CEFF090056DED7E
:10295000F090056CE0FFEFD3941F40037F012290BD
:10296000056CE0FFEF4440FF90056CEFF07F001234
:102970002C7F7B017A05796C7D017C001226C77B58
:10298000017A05796D7D017C001226C77F01122C2A
:102990007F7F002290047E1202F7900481ECF0A366
:1029A000EDF0900483743AF07F00122C7F7B017A63
:1029B0000479837D017C001226C790047E1202C038
:1029C000900481E0FCA3E0FD1228A5900484EEF0C1
:1029D000A3EFF07F01122C7F900484E0FEA3E0FFC0
:1029E000229004861202F7900489ECF0A3EDF09097
:1029F000048B747AF07F00122C7F7B017A04798B30
:102A00007D017C001226C79004861202C0900489C2
:102A1000E0FCA3E0FD1226C790048CEEF0A3EFF0DB
:102A20007F01122C7F90048CE0FEA3E0FF22900532
:102A30006EEFF090056FEDF090056EE0FFEFD39430
:102A40001F40037F012290056EE0FFEF4480FF905E
:102A5000056EEFF07F00122C7F7B017A05796E7D89
:102A6000017C001226C77B017A05796F7D017C000D
:102A70001226C77F01122C7F7F0022900570EFF095
:102A8000900571EDF0900570E0FFEFD3941F4003C7
:102A90007F0122900570E0FFEF44A0FF900570EFEA
:102AA000F07F00122C7F7B017A0579707D017C001C
:102AB0001226C77B017A0579717D017C001226C739
:102AC0007F01122C7F7F00229005A3E4F0906462C6
:102AD000E0FFEF5420FF7E00EF4E70047F01800284
:102AE0007F00EF7007906451E0FF80E1122F60904B
:102AF00005A3EFF0906491E0FFEF4403FFEFF09047
:102B00006491E0FFEF54FCFFEFF09005A3E0FF12AB
:102B10002EDE22900572EFF0900572E0FFEFD39465
:102B20000350347F1F122CB0900573EFF0900573A3
:102B3000E0FFEF54FCFF900573EFF0900573E0FFAA
:102B4000900572E0FEEF4EFF900573EFF090057375
:102B5000E0FD7F1F12294722900598E4F0122F60B4
:102B6000900598EFF0906491E0FFEF4420FFEFF0C4
:102B7000906493E0FFEF4410FFEFF0906492E0FF69
:102B8000EF4410FFEFF0900598E0FF122EDE122FB9
:102B9000B92290050A1202F790050E7402F0900512
:102BA0000EE0FFEF601E90050A1202C01226609030
:102BB000050DEFF090050DE0FFEF700890050EE0B9
:102BC00014F080DA90050DE0FF227B0C7A0179CFBA
:102BD000122FC59005C0EFF09005C0E0FFEF54073D
:102BE000FF90586EEFF09005C0E0FFEFC4540FFF68
:102BF000EF540FFF90586FEFF09058767444F02226
:102C0000EC4D4E700D78FCEF24E950032840FD2276
:102C1000000078C5904800E0C403035403902C479B
:102C20009325E0240FF404FBEF28FF78FFEE38FE35
:102C3000ED38FDEC38FC50D7EF2BFFEE38FEED38C9
:102C4000FDEC38FC40F22205020304758600EF4ECD
:102C50006027EF60010E7593009003A0E0F595A347
:102C6000E0F585A3E0F5848B938A838982E0A30550
:102C700086F0A31586DFF6DEF4E4F593F595229051
:102C80000574EFF0905100E0FFEF54BFFF90057521
:102C9000EFF0900574E0FFEFC4333354C0FFEF54FE
:102CA00040FF900575E0FEEF4EFF905100EFF022DF
:102CB000900568EFF07F00122C7F7B017A05796820
:102CC0007D017C001226C77B017A0579697D017C34
:102CD000001228A57F01122C7F900569E0FF229049
:102CE00005B374FFF0122E18122D0EEF70147F0131
:102CF0001227F5EFB407069005B37407F0122EF60D
:102D000080069005B37404F09005B3E0FF229005AF
:102D1000927404F0122F60900593EFF09005BEE0DE
:102D2000FFEF700B9005BE7401F0900592E4F090F7
:102D30000593E0FF122EDE900592E0FF22ACEAAD93
:102D4000A08E838F82E493F9601CA3E493F5EAA339
:102D5000E493F5A0A3E49360F1FAA3E493F8A3E469
:0B2D600093F2DAF6D9E48DA08CEA2291
:102D6C00EEFA900416E0F88FF0A4FFAEF0E88AF0CB
:102D7C00A42EFEE5F03400FDEF24C9FF78FFEE38F9
:102D8C00FEED38FDE438FC5003022C002290059631
:102D9C00EFF0122F217E00EF30E1F7900596E0FF67
:102DAC00122E8C122F217E00EF30E3F7122F367E7D
:102DBC0000EF30E5F7122F4B227B017A04793FC0EC
:102DCC0003C002C0017B017A04793B9002DE12023F
:102DDC00F7D001D002D00312217C121B45120DB387
:102DEC0080F82290059774FFF07F00122C7F7B01F6
:102DFC007A0579977D017C001226C77F01122C7F02
:102E0C007FE87E037D007C001225F422122F609057
:102E1C0005BAEFF09043A0E0FFEF4408FFEFF0900D
:102E2C0043B0E0FFEF4408FFEFF09005BAE0FF126B
:102E3C002EDE22EFB40A07740D122E4A740A309853
:102E4C0011A899B8130CC2983098FDA899C298B8DB
:102E5C0011F63099FDC299F59922758600EF4E60F6
:102E6C001BEF60010E8C838D828B958A858984E49F
:102E7C0093A30586F0A31586DFF5DEF3E4F5952222
:102E8C0090059EEFF0906463E0FFEF5404FF7E002A
:102E9C00EF4E60F190059EE0FF906441EFF02290C0
:102EAC006481740FF0122AC8122F21122F369064ED
:102EBC0083E4F0906482E4F022EC4D6011ED60014B
:102ECC000C8B938A838982E4F0A3DDFCDCFA759386
:102EDC000022EF54016004D2AF8002C2AFEF540263
:102EEC00FF9044F4E054FD4FF022122F609005BD8A
:102EFC00EFF09005BEE4F09005BDE0FF122EDE224F
:102F0C009005A6E0FFEF7009122EAB9005A6740198
:102F1C00F0122B582290059CE4F0906463E0FF9033
:102F2C00059CEFF090059CE0FF2290059DE4F0904D
:102F3C006462E0FF90059DEFF090059DE0FF22900C
:102F4C00059FE4F0906451E0FF90059FEFF0900531
:102F5C009FE0FF229044F4E0F84402F0E85402FFB2
:102F6C0010AF012274014FFF228B938A838982EF69
:102F7C00F0A3EEF0A3EDF0759300229005BFEFF0F7
:102F8C009005BFE0FF9005BFEFF080FE227F017E31
:102F9C00007D007C001225F47F00122D99228B936A
:102FAC008A838982EDF0A3ECF0759300229043A202
:102FBC00E0FFEF4401FFEFF0228B938A838982E0DC
:102FCC00759300FF228B938A838982EDF0759300B1
:102FDC0022122F0C2200511000600051C000100072
:102FEC0051F0001001000000800101000F000114DD
:102FFC000008000140000A00014C000200015000D2
:10300C0000200D00520200020103006401810F0137
:10301C00000D050807010D020F05150D17022D08EF
:10302C00330E37013B083F4059045F010101300466
:10303C0041060807200EAA160117141D031E202195
:10304C00042240232024512508260627402A402DFF
:10305C008131083765384039083C113E043F8045C2
:10306C000A47204D204E024F08566A57C065046C23
:10307C00046D016E866F15748075807601C0F0C288
:10308C00F0C4E0CA98CCF2CEFAD0E0D230D84001ED
:10309C00023000110202044D052007D00802095528
:1030AC000A340BAA0C0D0D0E0E401002120D162038
:1030BC0019941A401B691C4D1D331FC4204D24024A
:1030CC002638284D300F323033F03440370F3980EA
:1030DC003A023B083E105440580459045B045F010B
:1030EC0080018801A801B601BE40D409D804DB04D4
:1030FC00DF0101032D00100340041807410C800D63
:10310C00200E500F0813201509171018011E501F00
:10311C0010254C310C37603C103D88582059095A09
:10312C0080600166606720852090189109928099D3
:10313C00099A209B719D24A080A210A384A908AA9F
:10314C0002C0FAC2F0C472CC30CE70D60FD878015F
:10315C000404B908BF04D904DF010105082720AA1B
:10316C0010AD20AE40B210B420B780EA8001070148
:10317C00AB20014108030857015B248708C040D4E9
:10318C0080D660E4400142049F04AB20B301EA8086
:10319C00014302AB04EA8001500300010214080150
:1031AC00043200C056920904602100D20704380092
:1031BC0004928004010400920AFA10058407006846
:1031CC00009600008000040084000000849600003B
:1031DC0080077F1D000000E008000088000001004F
:1031EC0032054000060DFCEB3DFFFFFF2200F0080E
:1031FC000400000000000228040404040000000184
:10320C000000C00040011011C0010011400140013C
:10321C0000000000000000000000000000000000A2
:10322C006000046363002300000001008031AC00E7
:01323C008011
:00000001FF
